:020000041FFFDC
:1008000000000000B5CE002000E6002024E6002015
:1008100060EA00200000000000000000000000006E
:1008200000000000000000000000000000000000C8
:1008300000000000000000000000000000000000B8
:1008400000000000000000000000000000000000A8
:100850000000000000000000000000000000000098
:100860000000000000000000000000000000000088
:100870000000000000000000000000000000000078
:100880000000000000000000000000000000000068
:100890000000000000000000000000000000000058
:1008A0000000000000000000000000000000000048
:1008B0000000000000000000000000000000000038
:1008C0000000000000000000000000000000000028
:1008D0000000000000000000000000000000000018
:1008E0000000000000000000000000000000000008
:1008F00000000000000000000000000000000000F8
:1009000000000000000000000000000000000000E7
:1009100000000000000000000000000000000000D7
:1009200000000000000000000000000000000000C7
:1009300000000000000000000000000000000000B7
:1009400000000000000000000000000000000000A7
:100950000000000000000000000000000000000097
:100960000000000000000000000000000000000087
:100970000000000000000000000000000000000077
:100980000000000000000000000000000000000067
:10099000A9BC00203DBD0020D5DE002000000000E5
:1009A0000000000000000000000000000000000047
:1009B0000000000000000000000000000000000037
:1009C0000000000000000000000000000000000027
:1009D0000000000000000000000000000000000017
:1009E0000000000000000000000000000000000007
:1009F00000000000000000000000000000000000F7
:100A000000000000000000000000000000000000E6
:100A100000000000000000000000000000000000D6
:100A200000000000000000000000000000000000C6
:100A300000000000000000000000000000000000B6
:100A400000000000000000000000000000000000A6
:100A50000000000000000000000000000000000096
:100A60000000000000000000000000000000000086
:100A70000000000000000000000000000000000076
:100A80000000000000000000000000000000000066
:100A90000000000000000000000000000000000056
:100AA0000000000000000000000000000000000046
:100AB0000000000000000000000000000000000036
:100AC0000000000000000000000000000000000026
:100AD0000000000000000000000000000000000016
:100AE0000000000000000000000000000000000006
:100AF00000000000000000000000000000000000F6
:100B000000000000000000000000000000000000E5
:100B100000000000000000000000000000000000D5
:100B200000000000000000000000000000000000C5
:100B300000000000000000000000000000000000B5
:100B400000000000000000000000000000000000A5
:100B50000000000000000000000000000000000095
:100B60000000000000000000000000000000000085
:100B700009C1002000000000E3800020E580002083
:100B80000000000000000000000000000000000065
:100B90000000000000000000000000000000000055
:100BA000000000000000000000000000EDB8002080
:100BB0000000000000000000000000000000000035
:100BC000D5B8002000000000000000000000000078
:100BD0000000000000000000000000000000000015
:100BE0000000000000000000000000000000000005
:100BF00000000000000000000000000000000000F5
:0C0C000001FF01FF01FF01FF41000000A7
:020000041FFFDC
:1050000001FF01FF01FF01FF01FF01FF01FF01FFA0
:1050100001FF01FF01FF01FF01FF01FF01FF01FF90
:1050200001FF01FF01FF01FF01FF01FF01FF01FF80
:1050300001FF01FF01FF01FF01FF01FF01FF01FF70
:1050400001FF01FF01FF01FF01FF01FF01FF01FF60
:1050500001FF01FF01FF01FF01FF01FF01FF01FF50
:1050600001FF01FF01FF01FF01FF01FF01FF01FF40
:1050700001FF01FF01FF01FF01FF01FF01FF01FF30
:1050800001FF01FF01FF01FF01FF01FF01FF01FF20
:1050900001FF01FF01FF01FF01FF01FF01FF01FF10
:1050A00001FF01FF01FF01FF01FF01FF01FF01FF00
:1050B00001FF01FF01FF01FF01FF01FF01FF01FFF0
:1050C00001FF01FF01FF01FF01FF01FF01FF01FFE0
:1050D00001FF01FF01FF01FF01FF01FF01FF01FFD0
:1050E00001FF01FF01FF01FF01FF01FF01FF01FFC0
:1050F00001FF01FF01FF01FF01FF01FF01FF01FFB0
:1051000001FF01FF01FF01FF01FF01FF01FF01FF9F
:1051100001FF01FF01FF01FF01FF01FF01FF01FF8F
:1051200001FF01FF01FF01FF01FF01FF01FF01FF7F
:1051300001FF01FF01FF01FF01FF01FF01FF01FF6F
:1051400001FF01FF01FF01FF01FF01FF01FF01FF5F
:1051500001FF01FF01FF01FF01FF01FF01FF01FF4F
:1051600001FF01FF01FF01FF01FF01FF01FF01FF3F
:1051700001FF01FF01FF01FF01FF01FF01FF01FF2F
:1051800001FF01FF01FF01FF01FF01FF01FF01FF1F
:1051900001FF01FF01FF01FF01FF01FF01FF01FF0F
:1051A00001FF01FF01FF01FF01FF01FF01FF01FFFF
:1051B00001FF01FF01FF01FF01FF01FF01FF01FFEF
:1051C00001FF01FF01FF01FF01FF01FF01FF01FFDF
:1051D00001FF01FF01FF01FF01FF01FF01FF01FFCF
:1051E00001FF01FF01FF01FF01FF01FF01FF01FFBF
:1051F00001FF01FF01FF01FF01FF01FF01FF01FFAF
:0452000001FF011198
:020000042000DA
:1058000001FF01FF01FF01FF01FF01FF01FF01FF98
:1058100001FF01FF01FF01FF01FF01FF01FF01FF88
:1058200001FF01FF01FF01FF01FF01FF01FF01FF78
:1058300001FF01FF01FF01FF01FF01FF01FF01FF68
:1058400001FF01FF01FF01FF01FF01FF01FF01FF58
:04585000012800002B
:020000042000DA
:1080000040250120D5800020DD800020DF80002079
:108010000000000000000000000000000000000060
:10802000000000000000000000000000E1800020CF
:108030000000000000000000E3800020E580002038
:10804000E7800020E7800020E7800020E780002014
:10805000E7800020E7800020E7800020E780002004
:10806000E7800020E7800020E7800020E7800020F4
:10807000E7800020E7800020E7800020E7800020E4
:10808000E7800020E7800020E7800020E7800020D4
:1080900000000000000000000000000000000000E0
:1080A00000000000000000000000000000000000D0
:1080B000E780002000000000E7800020E78000202B
:1080C0000348854600F042F80048004715CD0020DF
:1080D000402501200448804704480047FEE7FEE7AA
:1080E000FEE7FEE7FEE7FEE749A40020C18000208E
:1080F00003460B439B0703D009E008C9121F08C0C1
:10810000042AFAD203E00B780370401C491C521E6B
:10811000F9D27047D2B201E00270401C491EFBD276
:1081200070470022F6E710B513460A460446194682
:10813000FFF7F0FF204610BD0321001D401E03780D
:1081400012021A43491EF9D510467047064C012504
:10815000064E05E0E36807CC2B430C3C98471034EF
:10816000B442F7D3FFF7B0FF98E6002038E70020CD
:1081700070B58C180578401C6B075B0F01D1037834
:10818000401C2A1106D10278401C03E006780E70CC
:10819000401C491C5B1EF9D12B0705D40023521E3D
:1081A0000DD40B70491CFAE70378401CCB1A921CC3
:1081B00003E01D780D70491C5B1C521EF9D5A142CD
:1081C000D8D3002070BD000003B40148019001BD68
:1081D000C13C010003B40148019001BD7181000060
:1081E00003B40148019001BD3914000003B40148F3
:1081F000019001BD1117000003B40148019001BDB9
:10820000ED3C010003B40148019001BDF13E0100C5
:1082100003B40148019001BD1B3D010003B40148B6
:10822000019001BD7114000003B40148019001BD2B
:10823000C131000003B40148019001BDB142010009
:1082400003B40148019001BDD542010003B40148C7
:10825000019001BDC912000003B40148019001BDA5
:108260003D42010003B40148019001BD5D190000C9
:1082700003B40148019001BD593A010003B401481B
:10828000019001BD3518000003B40148019001BD03
:10829000C118000003B40148019001BD351500006C
:1082A00003B40148019001BD4117000003B4014827
:1082B000019001BDE915000003B40148019001BD22
:1082C000897B000003B40148019001BDD520000066
:1082D00003B40148019001BDA5E5000003B40148C5
:1082E000019001BD3D1C000003B40148019001BD97
:1082F0000D1D000003B40148019001BD830600007C
:1083000003B40148019001BD0143010003B40148D9
:10831000019001BDE120000003B40148019001BDBE
:10832000ED3A010003B40148019001BDF53C0100A4
:1083300003B40148019001BD5D3F010003B4014851
:10834000019001BD8D44010003B40148019001BDBD
:108350009D19010003B40148019001BDE11B01001A
:1083600003B40148019001BDCD1C010003B40148D4
:10837000019001BD351B010003B40148019001BD0E
:108380005D1E010003B40148019001BD351C0100D0
:1083900003B40148019001BD7921010003B40148F3
:1083A000019001BDA522010003B40148019001BD67
:1083B000E91C010003B40148019001BD1120010036
:1083C00003B40148019001BD4920010003B40148F4
:1083D000019001BD9124010003B40148019001BD49
:1083E0006D2C010003B40148019001BDA5250100D9
:1083F00003B40148019001BD6548000003B4014881
:10840000019001BD6902000003B40148019001BD63
:108410005171000003B40148019001BDE139000031
:1084200003B40148019001BDB922010003B4014821
:10843000019001BD3921010003B40148019001BD43
:108440009122010003B40148019001BDE91D010022
:1084500003B40148019001BD852B010003B401481C
:10846000019001BD150E010003B40148019001BD4A
:108470000D1C010003B40148019001BDC51B0100A2
:1084800003B40148019001BD0519010003B401487E
:10849000019001BDDD1C010003B40148019001BD44
:1084A000A523010003B40148019001BD251C010072
:1084B00003B40148019001BD751C010003B40148DB
:1084C000019001BDF51D010003B40148019001BDFB
:1084D0006D1F010003B40148019001BD0D2501008D
:1084E00003B40148019001BD1515010003B4014812
:1084F000019001BDFDEC000003B40148019001BDF5
:10850000E10F010003B40148019001BDC110010059
:1085100003B40148019001BD3902010003B40148D0
:10852000019001BD7503010003B40148019001BD34
:108530001590000003B40148019001BD5590000062
:1085400003B40148019001BDD136000003B40148D5
:10855000019001BD01E6000003B40148019001BD96
:10856000BD07000003B40148019001BD891C000053
:1085700003B40148019001BDA53C010003B40148CA
:10858000019001BDE907000003B40148019001BD5D
:108590006D07000003B40148019001BDFD0E00000D
:1085A00003B40148019001BD2D0E000003B4014841
:1085B000019001BD3D07000003B40148019001BDD9
:1085C000211A000003B40148019001BD050E00000E
:1085D00003B40148019001BD8922000003B40148A1
:1085E000019001BD610E000003B40148019001BD7E
:1085F0009D0E000003B40148019001BDD50E00009E
:1086000003B40148019001BD610F000003B40148AB
:10861000019001BDE997000003B40148019001BD3C
:108620003D98000003B40148019001BDE58D0000B4
:1086300003B40148019001BD4977010003B401482A
:10864000019001BDCDEA000003B40148019001BDD5
:10865000E1EA000003B40148019001BD09F0000007
:1086600003B40148019001BDA5EB000003B401482B
:10867000019001BD05BF000003B40148019001BD98
:1086800095E8000003B40148019001BD8DE90000A8
:1086900003B40148019001BDF53B000003B401485B
:1086A000019001BDA5E6000003B40148019001BDA1
:1086B00071E9000003B40148019001BD51E80000D8
:1086C00003B40148019001BDFD02010003B401485B
:1086D000019001BDD1EF000003B40148019001BD3C
:1086E0001DE9000003B40148019001BDC9BE0000AE
:1086F00003B40148019001BD55F7000003B40148DF
:10870000019001BD51FD000003B40148019001BD7D
:108710003D00010003B40148019001BDA9E0000043
:1087200003B40148019001BD9509010003B401485B
:10873000019001BD4956010003B40148019001BDFB
:108740008D3C010003B40148019001BDE55B0000D0
:1087500003B40148019001BDE129000003B40148C0
:10876000019001BD9937000003B40148019001BD9B
:108770005114000003B40148019001BD091F00001D
:1087800003B40148019001BDA579000003B401487C
:10879000019001BDC53F010003B40148019001BD36
:1087A00061EC000003B40148019001BDB1EC000090
:1087B00003B40148019001BDC91F000003B4014882
:1087C000019001BD7D3A010003B40148019001BD53
:1087D000913F010003B40148019001BDA94201008D
:1087E00003B40148019001BD113A010010B5034ADC
:1087F0001321034800F056FC10BD000078E500206E
:108800004CE7002010B500241346002802D00224B3
:10881000204610BD0A4619460148FFF7D5FCF7E788
:1088200043E700200020704770B50C460146032046
:1088300000020A1A002534481300FFF7CBFC1D1074
:1088400012151C1F2326282C303234383A3C3E4067
:10885000424446484A4E50525A5456585A00C079DB
:1088600011E01022294902E0284910221031204647
:10887000FFF7AAFC45E0C06A206042E022490622D8
:108880003C31F4E7007820703BE0808936E01E49F7
:1088900042784231EBE71D4982781F39E7E7007AD9
:1088A000F1E7407AEFE7184906223031DFE7807AB6
:1088B000E9E7C07AE7E7C08920E0808A1EE0C07857
:1088C0001CE0808B1AE0C08A18E0008B16E0408B19
:1088D00014E00D4906223631C9E7C08B0EE0008C4A
:1088E0000CE0408C0AE08079CDE7008A06E0408AFF
:1088F00004E0272904D20846FFF772FC208000E03C
:108900000225284670BD000068E9002071EE0020B5
:1089100070B50E4C00256071A571691EE181FFF7ED
:1089200065FC0420E071102200210948FFF764FC77
:108930000748102200211030FFF75EFCE562257227
:1089400065720120A072E57270BD000068E9002028
:1089500071EE0020FEB53B4D0C4608040CD568793D
:10896000FFF750FC050004D002F00AF92846FFF793
:108970004FFC0120C00360E0600403D501208003A8
:108980004840FEBD2F48E1070126807900292AD002
:108990002978002920D0052821D0297A684601703D
:1089A000697A4170274906223031801CFFF70CFCA0
:1089B000A97A68460172E97A417269466879FFF7D7
:1089C0002DFC002808D00720A871696A002903D06F
:1089D0000968002900D0884720467040FEBD03206A
:1089E00069460870E4E7A1070DD5052809D1E88993
:1089F000FFF71AFCAA8A002A03D002216879FFF740
:108A000019FC022019E0600704D5002002F010F9DB
:108A1000042012E0200712D52879012802D002286C
:108A20000AD107E000966B8B2A8BE98AA88B00F0AD
:108A30000BF801E000F05AF908206040FEBD00206C
:108A4000FEBD000068E90020F8B5134C069EA5792C
:108A5000052D01D01420F8BD104F851FBD4219D23D
:108A6000062917D3BD1DA94214D2FF27F537BA42F4
:108A700010D20A2B0ED3AB420CD2A083E182228308
:108A80006383304602F0D4F804216079FFF7D8FB05
:108A90000020F8BD1820F8BD68E900207A0C00001D
:108AA000F7B50D4680490098164642187F4F0024BE
:108AB0007879B9791300FFF78DFB190E141BE920A3
:108AC00040455970777E888FE996A2A9B4BFC8E95E
:108AD000E9E9E9D3E900102D76D110223146744836
:108AE0006FE0102D70D1724810223146103068E0CE
:108AF000042D69D13068F862CEE0012D64D13B7855
:108B000032783A70002B0AD0002A07D1022903D00C
:108B1000062901D0042901D1FFF798FBBCE0002A07
:108B20000AD0012905D0032903D0052901D0042941
:108B300002D10121FFF790FBAEE0022D44D1308835
:108B4000B881A9E01F2D3FD858481F22002142308C
:108B5000FFF752FB55482A4631464230FFF734FBB7
:108B6000524B7D7042332A46012112E01F2D7CD8E2
:108B70004F481F2200211F38FFF73EFB4C482A4672
:108B800031461F38FFF720FB494B2A461F3BBD707B
:108B900000217879FFF766FB83E0012D65D13078FD
:108BA000042862D8387277E0012D5ED1307803282E
:108BB0005BD8787270E0062D57D13C4806223146CA
:108BC0003030FFF701FB67E04FE0012D4DD13078E9
:108BD00007284AD8B8725FE0012D46D130780328C3
:108BE00043D8F87258E0022D3FD13288BA82002A69
:108BF00052D0052950D10221FFF71CFB4CE0012D7A
:108C000033D13078012830D8F87045E03088022D13
:108C10002BD1062829D31921C901884225D8B88328
:108C20003AE03088022D20D106281ED31921C9012F
:108C300088421AD8F8822FE03088022D15D1FF2102
:108C4000F531884211D2388326E03088022D0CD1CC
:108C50000A280AD31921C901884206D878831BE063
:108C60003178012D01D1012901D0182414E0082107
:108C7000FFF7FEFA002801D016240DE0002001F0D5
:108C8000D7FF04217879FFF7DBFA05E00098272861
:108C900001D2022D02D002242046FEBD3188FFF70A
:108CA000EDFA0446F8E70000FFFCFFFF68E900204A
:108CB00071EE00201CB50B4CA179002901D01120C8
:108CC0001CBD002800D06062064907482C310346CD
:108CD00001910090103B0022E179607900F016F8D4
:108CE00000201CBD68E9002081EE002010B5064878
:108CF0008179052901D0122010BDC1891322407944
:108D0000FFF7C2FA10BD000068E90020F8B51D4663
:108D10000224069F079E0B00FFF75CFA0511041161
:108D200011041100FFF7B6FA040008D132463946A3
:108D30002846FFF7B5FAFFF7B9FAFFF7BDFA204664
:108D4000F8BD0000014610B50020C90704D0034A51
:108D50000421034800F0A6F910BD00008CE50020B6
:108D6000A0E8002070B50F4D0F4CA87029461431B3
:108D7000204600F01DF8002128460B460C30CA00A2
:108D800084521218491C09065360090EF7D00120BD
:108D900002F080FBA878FFF795FA0448FFF798FAED
:108DA00070BD000084E80020FFFF0000FDAC002043
:108DB00070B50A4C0025A04209D1002082008C52D7
:108DC0005218401CC0B295700228F7D370BD01F054
:108DD00064FF0028FAD00480857070BDFFFF00009A
:108DE000F8B50E460746069900240798002902D0D8
:108DF0000B242046F8BD022B01D00D24F9E7117891
:108E00005278120289188DB22946814301D08024FC
:108E1000EFE73846F16800F03DF9A842E9D02A466C
:108E20003846F16800F0A8F90400E2D171892A46B9
:108E3000384600F065F9DCE770B50C46080412D539
:108E40000A488078FFF7DEF9050008D02878B028B6
:108E500002D1284602F03CF82846FFF7D9F9012054
:108E6000C003604070BD002070BD000084E8002099
:108E7000FFB587B0087A0025109E1C460F46C00635
:108E80000DD5099801F002FF030006D00A223946E9
:108E900007989847050035D101E00E2532E0387873
:108EA00002281DD178682922017840781202000238
:108EB000081880B2811A90427ED009DC7249401AAB
:108EC00023D0012821D0022851D0032808D125E041
:108ED000012972D0022971D003296DD004296ED0E6
:108EE000099801F0FBFE0028D7D00568002DD4D0EA
:108EF00012991198019100903346224639460798FD
:108F0000A847054628460BB0F0BD1198002873D13C
:108F1000F868017831700278416897E0119800286C
:108F20006AD101203070F8680021007820707889BB
:108F3000401C80B2FFF7D2F900280FD031780278B8
:108F40008918891C3170817A61704189090AA17080
:108F500002784168E01CFFF737F9D3E73078042244
:108F6000001D30700021601CFFF746F9CAE7119818
:108F7000002872D1F86804A900880090042030709D
:108F8000009820700098000A60700098FFF7A6F91A
:108F9000070028D0F86805906846028A03AB3B4971
:108FA0003846FFF7A1F900280FD13B780221384855
:108FB0007A68FFF79FF903E027E031E01DE049E020
:108FC000002802D131486946888105980078022836
:108FD0000CD1059802224168201DFFF7F5F8307882
:108FE000801C307002E0694600988881684680895C
:108FF000A070000AE07085E72FE0119800282CD1BE
:10900000F968079800F046F804E01198002824D188
:10901000F8680088022131702070000A607071E7E2
:10902000F868FFF76DF91199C0B2814210D88142FA
:1090300001D1002206E0129A8918814202D31199C7
:10904000401AC2B23270F96811980918204682E7B6
:10905000072557E71198002801D00B2552E7072173
:10906000F868317001782170417861708178A17061
:109070004188090AE1700179217181796171C088A3
:10908000000AA0713EE7000000280000FFFF00007A
:109090001E7C010010B501F000FE002800D0807891
:1090A00010BD00007CB51446050019D06846019536
:1090B0000180FFF72BF903001DD1002C1BD06D8917
:1090C000002D0DD00C20FFF727F900280AD000232F
:1090D00003608580094A84605168002904D006E055
:1090E000022308E0132306E0506004E011460A68FA
:1090F000002AFBD1086018467CBD000084E80020EF
:10910000F8B50C4C0746207815460E46FF280FD0C0
:109110000A20FFF707F901000AD0B12008700020EB
:10912000487008714F80CE800D812078FFF700F9DC
:10913000F8BD000084E80020FFB583B008461E4655
:1091400001A90C9FFFF7CAF8050012D06846808875
:1091500001F0C4FD00280AD04468002C07D0009715
:10916000F3B22946059A0398A04707B0F0BD0E2038
:10917000FBE70120F9E7000070B514460E460546EE
:1091800001F08BFD002806D13146054801F085FD30
:10919000002803D005808470002070BD112070BDB0
:1091A000FFFF0000014610B50020C90704D0034AA4
:1091B00007210348FFF776FF10BD0000A0E500205F
:1091C000F4E8002070B50D46164600241D49030042
:1091D000FFF700F808051234341934222934152D0C
:1091E00023D8162200211848FFF706F82A463146F0
:1091F0001548FEF7E9FF22E0022D16D1114910882B
:10920000103908801BE0082D0FD10E480822314686
:109210000838FEF76DFF12E0012D06D1CA69094931
:109220003078283107E0012D01D0182407E0CA6BFF
:1092300004493078483102F0E2F900E00224204687
:1092400070BD0000F4E800203CEE0020F0B58DB0C9
:10925000FFF774F8FE4908600420FFF775F8FFF780
:1092600079F80546C0071DD0FA480024046072B69C
:10927000FFF776F8F84EFA4F3146FF310D3106917F
:10928000891C0291891D0391FF36F4490136022899
:109290000CD001287ED0F34A089205287BD0042800
:1092A0007AD09BE2FFF762F80DB0F0BD6A0507D5F2
:1092B000EA490A78012A07D0032A05D0022A03D0F6
:1092C0000978052969D0ECE70720FFF73DF808ABDE
:1092D0000AAA07A90698FFF74FF80546FFF752F8C4
:1092E000002805DD7868401C786068460025848386
:1092F000317B08074906000FC90F002D01D0032854
:1093000006D00528D54874D00078012872D05EE3D5
:10931000D2480078012801D00328F8D1D0488038FD
:10932000026A521C0262D048327DC3799A42EED161
:10933000727D037A9A42EAD1B27D437A9A42E6D1AB
:10934000F27D837A9A42E2D1327EC37A9A42DED1AA
:10935000727E037B9A42DAD1C44B0022DB689B8D7C
:109360001B072DD5C07B012801D0032828D1C04B75
:10937000D000801A1D5C8D421DD1C018B57B477886
:10938000BD4218D1F57B8778BD4214D1357CC778B2
:10939000BD4203E09DE1C2E3FEE3F3E00BD1757C47
:1093A0000779BD4207D1B57C4779BD4203D1F57C31
:1093B0008079854202D0521C082AD9DB082A1AD0AB
:1093C000A74D803DA86E401CA866AA4800680028EA
:1093D00002D0804700289AD0FEF7DAFFA64F012678
:1093E0003E70FEF7ABFF9A490968884209D9401AD6
:1093F0000AE02EE0B4E09A488038C16A491CC16294
:1094000085E79E4A511A081898497623C968181AA0
:109410000A79801A4A6C096CD2B2C9B2C0B2FEF79E
:10942000BDFFFEF7C1FF8B4806603C70FEF7C2FF30
:10943000FEF7C6FF9248808A010A9148891C1430C1
:10944000FEF7C4FF0E20FEF77FFF686A401C6862CB
:109450005DE70478012C01D0022CD1D180488038FE
:10946000826A521C8262804A307DD3799842C7D189
:10947000707D137A9842C3D1B07D537A9842BFD1A0
:10948000F07D937A9842BBD1307ED37A9842B7D19F
:10949000707E137B9842B3D1744B0020DB689B8DA8
:1094A0001B0728D5012C26D1D27B022A01D0032A02
:1094B00041D16F4BC200121A9D5C8D4218D1D21857
:1094C000B57B5778BD4213D1F57B9778BD420FD15C
:1094D000357CD778BD420BD1757C1779BD4207D159
:1094E000B57C5779BD4203D1F57C9279954202D083
:1094F000401C0828DEDB022C1BD1624A14788C4207
:1095000028D1B37B5478A34224D1F37B9478A3422F
:1095100020D1337CD478A3421CD1737C1479A3422C
:1095200018D1B37C5479A34214D1F37C927993423D
:1095300010D108280ED04A488038826E521C8266AC
:10954000504806220170401C0299FEF73DFEFEF7CE
:1095500043FFDCE642488038016B491C0163D6E6D4
:109560004148417BCA0701D0252104E0890701D584
:10957000262100E02721007D8842EAD93220FEF72B
:1095800031FF24E20720FEF7DFFE31483E49006844
:109590000968884201D9411A02E0384A511A09186B
:1095A0003A48026889180160680518D508AB0AAA0C
:1095B00005A90698FEF7E0FE0490307B05072D0F05
:1095C000FEF7E0FE002805DD7868401C78606846FC
:1095D000848204E00498002801D0042D21D002F0F8
:1095E00023FF2B4D288A012867D0FEF701FF298A27
:1095F000FEF704FF491CE982244EA88925493268F8
:109600004143914263D8A97C491CC9B2A974272956
:1096100000D92521A9746989884251D1FEF7F4FE49
:1096200053E0307B039A4006C10F6846808A00925F
:109630000838C3B20898029A000E404245B204208E
:109640000195FEF7E7FE06488038816B491C23E050
:109650005C12FF1F5812FF1FE81EFF1F1D12FF1F85
:10966000503CFF1F6832FF1F2C1DFF1FB4EA002073
:10967000AD1EFF1F8012FF1F5312FF1F40420F003D
:10968000E820FF1F4412FF1F8412FF1F7812FF1FE4
:10969000421DFF1F710200008163FC480475C17CFC
:1096A000491CC9B2C17402299BD1018A49080182AF
:1096B00001D101210182C47493E70120E8829BE774
:1096C000081AF3494843FEF78DFE34607FE1A87C19
:1096D00022E2F0490978052901D006297ED1062029
:1096E000FEF732FEEB480178052902D0062976D034
:1096F0006DE100200590A80514D5680512D508ABCA
:109700000BAA07A90698FEF737FE0190307B0507E4
:109710002D0FFEF737FE002805DD7868401C7860C5
:1097200068468483E4E00198002839D0002D05D0F4
:10973000012D03D0022D01D0062D31D1317B002027
:109740004906C90F0491D449C968898D09072AD5EA
:10975000CE49897B012926D1C100D04A091A535C20
:10976000049A934219D1CD4BB27BC9184B789A42D7
:1097700013D1F27B8B789A420FD1327CCB789A420C
:109780000BD1727C0B799A4207D1B27C4B799A4209
:1097900003D1F27C89798A4203D0401C0828DBDBA4
:1097A000A6E008287CDAB948BD49827C0A60417A83
:1097B000012974D1002D01D0062D70D1C18A002954
:1097C00000D0491E0904B148090CC18267D1B648CE
:1097D000B4498180B5480068002801E020E2B0E08B
:1097E00002D0804700285AD0B149012008700A20D1
:1097F000FEF716FE9E20FEF719FEFEF79FFDAD490F
:109800000968884201D9401A02E0AB4A511A081887
:109810007621091AA048C0688030007F081A059098
:10982000FEF70AFE05983422C0B20821FEF7B6FD05
:10983000FEF7BAFD3869A149401C38610120086073
:10984000FEF7B8FDFEF7BCFD0320FEF7FBFDB08977
:10985000402108408D4940000A78934FD207520EAC
:109860001043BA88491C1043B8800622B81DFEF781
:10987000ABFCB07B3873F07B7873307CB873707C52
:10988000F873B07C3874F07C7874B888010A381D9D
:10989000891CFEF79BFD012005908548047000E0BF
:1098A00026E02B00FEF796FC0705090B050D0507C2
:1098B0000500002006E0022004E0012002E0032071
:1098C00000E0FF200899039A090E494249B201912C
:1098D00000926946898B029A0839CBB20499FEF747
:1098E00099FD7748416B491C4163059800286ED16A
:1098F0007048016873480068814201D9081A02E083
:109900006D4A101A4018704D614B296841185F4824
:109910002960828953438B4211D8817C491CC9B28A
:109920008174272900D925218174EDE0FEF76CFDB3
:10993000EFE05749801A4843FEF754FDE9E0807C88
:10994000EAE0A80567D5680565D507AB04AA03A9B1
:109950000698FEF711FD0290307B05072D0FFEF7EC
:1099600011FD002805DD7868401C78606846848118
:1099700051E0029800284ED0002D01D0012D4AD18F
:10998000307B4006C30F5148C07B002802D001281D
:109990001ED040E04E48017899423CD1B17B4278DC
:1099A000914238D1F17B8278914234D1317CC278B6
:1099B000914230D1717C027991422CD1B17C4279B3
:1099C000914228D1F17C8079814224D12FE0BFE2FD
:1099D000324A0020C100091A555C9D4218D18918ED
:1099E000B57B4F78BD4213D1F57B8F78BD420FD147
:1099F000357CCF78BD420BD1757C0F79BD4207D144
:109A0000B57C4F79BD4203D1F57C89798D420ED06A
:109A1000401C0828DEDB2D48017A00295AD0254950
:109A20000A68284909688A425AD9511A5BE0204ECF
:109A300001253570FEF782FC1E490968884201D96C
:109A4000401A02E01C4A511A08187621091A1248D5
:109A50002822C0688030008C081AC0B20821FEF7A6
:109A60009DFCFEF7A7FCFEF7ABFCFEF791FCFEF7B2
:109A70009BFC124805600C488188001D090A891C5E
:109A8000FEF7A4FCFEF7E4FC34701BE3421DFF1F4D
:109A9000710200001D12FF1FB4EA0020AD1EFF1F5F
:109AA0008812FF1F030C0000E81EFF1F7C12FF1F1F
:109AB0005312FF1F5C12FF1F40420F005812FF1F7E
:109AC000D03BFF1F8412FF1F7812FF1F5A1DFF1F7C
:109AD0004412FF1FFE4810210470FE48007835E252
:109AE000FD4B591A8918FD4DFD4B2A6889182960CC
:109AF000828953438B420ED8817B491CC9B2817342
:109B0000272900D9252181734089824200D010E79E
:109B10000CE72C60D6E2807BFEF7A0FCD2E209784D
:109B200007297DD10B20FEF70FFCEE49FF220978B3
:109B300039325143EC4A00208B185870EB4E505488
:109B40003068002804D0FEF78FFC3178C84005E06B
:109B5000FEF78AFCE6490968FEF750FC0590E80527
:109B600035D53068002804D0FEF784FC3178C84031
:109B700005E0FEF77FFCDE490968FEF73FFCD949A6
:109B800004460878FF223932D74E504380190279B3
:109B9000002A03D0002200E0E9E002710246783298
:109BA000911E753004F07EF90598011BD148C068FC
:109BB000C0680918D0480160680528D5C949FF2246
:109BC0000978393201205143891948701FE0C5488E
:109BD00001210278FF2039304243C3488154C749EC
:109BE00010184B6E20305B1C4B66C249C9680B696C
:109BF0000599FF390F395B18BF490B60407F410061
:109C0000BF480818FF300130018D491C01852146ED
:109C10002846FEF735FCFEF739FC0446B94900E05A
:109C2000A8E008700020087248728872C872B648AE
:109C3000054205D0B148026E521C0266012008722E
:109C4000A848FF22007839325043A74AAD4983180B
:109C50001846FF30213006798A1DFF334079491CB0
:109C60002533FEF719FC02469E48FF210078393162
:109C700048439D4940180146FF3121314A7102791C
:109C8000002A0BD102220979164011408E4205D0DC
:109C90009C494A78002A01D101224A709B494968AF
:109CA00096230904090E03911B5C8E4A002B02D0F7
:109CB000FB681B19FB602030407F914E40008019EB
:109CC000C030C18B17460919C183FEF7EBFB014673
:109CD0003878FF2239325043834A80182030407F41
:109CE000400080198030828A891881820AAA07A9D7
:109CF00006A8FEF7DDFB3878FF21393148437A4961
:109D000040182030407F69464000325A097F511880
:109D100031528019403069464289097E511841818B
:109D2000680705D50398844202D22046FEF7C6FB99
:109D3000FEF7CAFB73480021754A81701378012B26
:109D40000DD1002C0BD0089B9B69002B04D0089BE5
:109D50001B7FDB439B0702D0012383701170807946
:109D6000002801D0FEF7B6FBFEF7BAFBE8E0097861
:109D7000082906D0674F3A78022A7DD0052A7BD081
:109D8000E9E00920FEF7E0FA564FFF203978393034
:109D9000554E41430022881942707254AA0510D5CD
:109DA000024678323C46911E753004F07BF8680517
:109DB00013D52178FF223932012051438919487087
:109DC0000BE0012272542030407F41004C480818BB
:109DD000FF300130018D491C01854B48054206D0FA
:109DE0004648016E491C0166464901200872FEF78B
:109DF0004DFB04464348FF2104703878393148430D
:109E00003949404A4318FF202630C05C921DFF3379
:109E1000511F25330390FEF73FFB01463878FF22A0
:109E200039325043304A364E8018FF2226321154C0
:109E30002030407F40008119C031C88B0019C88391
:109E4000FEF730FB01463878FF2239325043264A6C
:109E500080182030407F400080198030828A891825
:109E6000818207AA06A905A8FEF722FB3978FF2000
:109E7000393041431C4800E06BE008182030407F37
:109E800069464000325A097E5118315280194030DB
:109E900069464289097D511841811C484068000487
:109EA000010E0398222801D1012906D0680704D5A4
:109EB0008C4202D22046FEF701FBFEF705FB11485B
:109EC0000022134982700B78012B32D1002C23E041
:109ED0001D12FF1F1C12FF1F40420F007812FF1FB0
:109EE000710200004D12FF1F6C1DFF1F2410FF1F89
:109EF0002010FF1FB4EA00206012FF1FD03BFF1F9D
:109F0000203DFF1F9C3CFF1F020800000010034083
:109F10004B12FF1F2312FF1F0BD0089B9B69002BC6
:109F200004D0089B1B7FDB439B0702D00123837077
:109F30000A708079002801D0FEF7CCFAFEF7D6FA35
:109F400070480078002803D06F490988FEF784F92B
:109F5000B8E0002802D0012824D0B3E06B490020EB
:109F600001264D7B01E0401CC0B2334683401D42B8
:109F7000F9D00B7D2530834202D0FEF7BDFA0BE00D
:109F8000052A0DD0488881004018C2086048012188
:109F900049030078FEF74EF90520FEF7D5F991E068
:109FA0003C70F9E7012A7DD1A80556D5680554D53E
:109FB00007AB08AA04A90698FEF7DEF9B1890A07DB
:109FC000120F002849D0022A47D1524A4906D268C6
:109FD0000020928DC90F120728D54F4A927B012A83
:109FE00024D14E4BC200121A9D5C8D4218D1D2185A
:109FF000B57B5778BD4213D1F57B9778BD420FD121
:10A00000357CD778BD420BD1757C1779BD4207D11D
:10A01000B57C5779BD4203D1F57C9279954203D046
:10A02000401C0828DEDB18E0082816DA3A48827C53
:10A030003B480260079A039B120E524252B20192B1
:10A0400000936A46128A0320083AD3B2029AFEF7B6
:10A05000E1F93448416B491C416333480168334896
:10A060000068814201D9081A02E0314A101A4018EA
:10A07000304D314B29684118274829608289534364
:10A080008B421CD8817C491CC9B28174272900D914
:10A0900025218174408901210903824206D11C488F
:10A0A000007800E00EE0FEF7D7F832E5801A820073
:10A0B0008018C21016480078FEF7BCF829E5807CAD
:10A0C000FEF720FA1D4C2078042802D0032809D07E
:10A0D0000CE0FEF71DFA002808D0FEF70DFA02206A
:10A0E000207003E00C48807CFEF70CFA14480068EE
:10A0F000002801D1FEF73AF962B60320FEF724F9F1
:10A100000DB0F0BD5112FF1F5612FF1F2C1DFF1F77
:10A110001C12FF1FB4EA0020421DFF1FAD1EFF1FCF
:10A120008812FF1FD03BFF1F5C12FF1F8412FF1F0E
:10A1300040420F007812FF1F710200002312FF1F20
:10A140005812FF1FF8B502464348017809294BD041
:10A150000A2949D00B2947D00C2945D00D2943D0D5
:10A160003E4FB87B002807D0012805D0032803D034
:10A17000022801D0042814D1BB79002B01D0012B77
:10A180000FD1032801D0022802D17888A02808D353
:10A19000334D344E287833780024002A34D0012AF5
:10A1A00001D01220F8BDBA88012A1DD02822012929
:10A1B0000AD0022908D0042906D0032904D007298F
:10A1C0000BD0082909D00FE0274804603A75FEF744
:10A1D000A5F9002815D0BC8006E02449C968898DFE
:10A1E000890601D5002B01D02120F8BD0221317054
:10A1F0000C033A752146FEF723F821462878FEF72E
:10A200002BF80120B88025E072B6BC80124A0729DD
:10A2100008D0082906D01470FEF786F91E20FEF734
:10A2200093F816E000217A7B01E0491CC9B20125B0
:10A230008D402A42F9D0022B06D13A7D25318A423F
:10A2400002D00520307004E0012134704903FDF78D
:10A25000F7FF62B60020F8BD1D12FF1F2C1DFF1F67
:10A260001C12FF1F2312FF1F2812FF1FB4EA002039
:10A27000F8B5434F84463A78092A45D00A2A43D094
:10A280000B2A41D00C2A3FD00D2A3DD03D4C607A9C
:10A29000002801D001281AD12078002801D00128F7
:10A2A00015D1658938482B1F834210D2A3891E1F00
:10A2B00086420CD2AB420AD8002901D0012906D12E
:10A2C0006046324B324D00282AD0012801D012209E
:10A2D000F8BD207A012817D025200126002A04D0B5
:10A2E000072A0AD0082A08D00EE0E671E173A074AC
:10A2F00005203870FEF788F810E0E968898D490676
:10A3000002D51978002901D02120F8BDA074214878
:10A310001E70012109030078FDF79EFF26722CE0D4
:10A3200072B60026052A04D0072A07D0082A05D0CD
:10A3300005E03E701E20FEF707F800E01E70267252
:10A340005820FEF773F862B6FDF7F8FF124E134C73
:10A3500028610FE0FDF7F2FF2969884201D3401A16
:10A3600001E0711A081868617D22E969D200514341
:10A37000814202D320680128ECD00020F8BD000003
:10A380001D12FF1F421DFF1FFD3F00002312FF1F74
:10A39000B4EA00201C12FF1F40420F005812FF1F9A
:10A3A000F8B50446002003460A5C8507ED0EAA4076
:10A3B0001343401C0428F7DB00F026F90028FBD1EA
:10A3C00000F03AFA21022004090E0843FF273F0259
:10A3D00021463940084372B600211A4DA960194E32
:10A3E0000002803E801C3060336062B600F00CF9E1
:10A3F0000028FBD100F010FA112000062018694651
:10A400002A695207FCD572B60422AA60040202042B
:10A41000240E2243384002431002C01C306062B652
:10A4200028694007FCD5307808703078487030785B
:10A4300088703078C8700098984201D00020F8BD2C
:10A440000120F8BD800008110249014808607047EA
:10A4500040787D01B0EA0020F8B506460024FEF7FA
:10A4600069F805460648471B06E0FEF763F8A84270
:10A4700001D3441B00E03C18B442F6D3F8BD000001
:10A48000FFFFFF0008B500020091000A04226946A0
:10A49000FFF786FF002800D0012008BD002805DB5B
:10A4A000C106C90E012088400149086070470000BC
:10A4B00000E100E08307FF22DB0E9A408907090EC6
:10A4C0009940002808DB830809489B001B1818687E
:10A4D00090430843186070470007000F083883084E
:10A4E00004489B001B18D86990430843D861704703
:10A4F00000E400E000ED00E08307FF22DB0E9A405D
:10A500008907090E9940002808DB830809489B0049
:10A510001B18186890430843186070470007000F25
:10A520000838830804489B001B18D86990430843E7
:10A53000D861704700E400E000ED00E0BFF34F8F0A
:10A5400004490348C860BFF34F8F00BFFDE7000018
:10A550000400FA0500ED00E0BFF34F8F0449034803
:10A56000C860BFF34F8F00BFFDE700000400FA058D
:10A5700000ED00E002E008C8121F08C1002AFAD16D
:10A5800070477047002001E001C1121F002AFBD173
:10A590007047F0B500248E464A1E12E07146002333
:10A5A0000D1B6D1E0AE09E0031188C4687594968C4
:10A5B0008F4202D9815161464F605B1C9D42F2D8A7
:10A5C000641C9442EAD3F0BD10B50020054CFF2175
:10A5D0002218401C51704028FADB03F0B3FA2070B7
:10A5E00010BD000078F2002010B50020054CFF21BE
:10A5F0002218401C51700628FADB03F0C1FA2070C3
:10A6000010BD0000D4EA0020084801694907FCD5C4
:10A61000012181600549052280390A7002695207CB
:10A62000FCD50878C007C00F7047000080000811F3
:10A63000F0B58646080CFF268446002388B23746CC
:10A640001C46194601228A4005461540CD402C196A
:10A65000A4B2FF2F02D1012C00D18FB265462A404F
:10A66000CA40D21893B2FF2E02D1012B00D18EB274
:10A67000491C1029E6DB012C02D0102C08D009E07F
:10A68000012B07D13001C019714608700220F0BDBE
:10A69000102B01D00320F0BD0120F0BD10B501202A
:10A6A0008007806901070348090F0068491CFDF70E
:10A6B000A5FE10BD1810FF1F032806D3012189072E
:10A6C0008A68012383401A438A6070470121890701
:10A6D0000B680122824093430B60086810430860B6
:10A6E00070470000F8B5496894460A784978069C96
:10A6F000090251188EB2444A112100250798B71A51
:10A70000091B964243D009DC404AB21813D0012AF3
:10A710001CD0022A25D0032A08D12EE0012F40D0D8
:10A72000022F48D0032F50D0292F5AD00020187064
:10A730000A252846F8BD082C55D20821091B81425C
:10A7400000D80846C2B21A70314857E00C2C4AD2E1
:10A750000C21091B814200D80846C2B21A702D484C
:10A760004CE00D2C3FD20D21091B814200D8084638
:10A77000C2B228481A700D3040E0112C33D2814209
:10A7800000D80846C2B223481A701B3036E0112C9C
:10A7900029D2814200D80846C2B21E481A702D3014
:10A7A0002CE0112C1FD2814200D80846C2B21948B1
:10A7B0001A703F3022E0112C15D2814200D8084691
:10A7C000C2B214481A70513018E00E2C0BD20E2170
:10A7D000091B814200D80846C2B20E481A70633085
:10A7E0000CE0072C01D30725A3E70721091B8142B1
:10A7F00000D80846C2B206481A70C01F0119604648
:10A80000FDF7E2FC95E70000272A0000DDD5FFFFF9
:10A8100043E7002004E50020064801694907FCD50C
:10A8200000218160034A0421803A117001694907BF
:10A83000FCD5704780000811064801694907FCD51E
:10A8400000218160034A0621803A1170016949079D
:10A85000FCD570478000081170B50021040000D1BC
:10A860001E4C1F4D28681F4B80B20022984222D0F8
:10A8700001281CD0830B460B7340DB07DB0F400025
:10A8800018434004400C030A43409B069B0E9A1851
:10A89000521C92B293089B005B199B689607F60EB8
:10A8A000F3406354491C0D29E4DB012070BD03F023
:10A8B00049F9022801D0002070BD0A220A49204629
:10A8C000FDF782FC08480F38C17EA172007FE0725C
:10A8D0000548113000782073E7E70000E0270120E9
:10A8E00000230011FFFF0000A7F200200346000232
:10A8F000012100B5000A090488421BD3FFF784FE3A
:10A900000028FBD1FFF798FF0B490020886019024F
:10A910001804090E0843FF2109020B401843064999
:10A9200000028039D8300860FFF76EFE0028FBD1A6
:10A93000FFF772FF00BD000080000811034600020F
:10A94000012100B5000A490388421BD3FFF75CFED2
:10A950000028FBD1FFF770FF0B4900208860190227
:10A960001804090E0843FF2109020B401843064949
:10A970000002803920300860FFF746FE0028FBD136
:10A98000FFF74AFF00BD000080000811F8B57A4CBF
:10A9900087780146002507266079A2793B00FDF7FC
:10A9A00019FC0805361A37375F9ACD3648780028E3
:10A9B0005CD1714806223C30C91CFDF705FC012022
:10A9C000A0716D4B0146423362786079FDF74AFC15
:10A9D00000284BD1A8E00F464978002946D1F978E4
:10A9E000002906D0654BA2780021FDF73BFC78706A
:10A9F0000AE0022A0BD00121FDF73AFC002803D11E
:10AA000001216079FDF728FC787800282ED1F8BD67
:10AA1000497800292AD1032F09D0A289002A0CD015
:10AA2000217800290AD00121FDF704FC06E0052A5F
:10AA300001D0022012E0062010E02570A07906283F
:10AA400002D0042802D008E0052007E00120207091
:10AA500001466079FDF700FC66E00320A07163E029
:10AA600048780F46002803D0312832D0A6715BE029
:10AA700041480622391D3630FDF7A6FB7889E08172
:10AA8000B8892082F88960820520A071A28A002AF4
:10AA900003D002216079FDF7CDFBB889E083F88906
:10AAA0002084388A6084E07801280AD11F20FDF7CD
:10AAB00097FB7D21C9004843024604216079FDF7D8
:10AAC000B9FB7A89F8780423391DFDF7ABFE2570B0
:10AAD0002AE02570C1E728480E46062200213630BC
:10AAE000FDF78AFBE5832584658404216079FDF701
:10AAF000A7FB08216079FDF7A3FBB079082808D0EF
:10AB00000320A0712078002805D06079FDF79EFB16
:10AB100007E00420F5E70120207001466079FDF789
:10AB20009BFB0020C043E081606A002800D16EE7F3
:10AB300001680029FBD0A0798847F8BD0D4608219F
:10AB4000FDF77EFB687829460028F6D1E888E08387
:10AB5000288920844889608404216079FDF788FB76
:10AB60000028EAD1A06A0028E7D00368628C218C13
:10AB7000E08B9847F8BD000068E9002052EE002005
:10AB800010B50178224C912906D0A22926D0D029CF
:10AB900001D1FFF7FBFE10BD41780E29FBD1818862
:10ABA0001C4A91420FD1816803200856A1790529DA
:10ABB000F1D17F28EFD0616A0029ECD049680029E3
:10ABC000E9D0884710BD144A9142FBD18068837850
:10ABD0004278017811A002F079FD10BD4179132966
:10ABE000FBD10089012802D12079022808D0052054
:10ABF000FDF7F6FA024608216079FDF71BFB10BD50
:10AC000008216079FDF71CFBFEF770F810BD00000D
:10AC100068E9002005140000222000005B48434939
:10AC200020444C455D25642025642025640A0000ED
:10AC30007CB5154C0546E08BA18B88420AD3E18A8E
:10AC4000884207D8208C218B884203D1608C618B8D
:10AC5000884217D00520FDF7C3FA0646A18B684647
:10AC60000180E18A4180218B8180618BC180627982
:10AC70006946E089FDF764FC257132460821607958
:10AC8000FDF7D8FA7CBD000068E9002010B500F09F
:10AC900025F8002800D0806810BD00229300CB5A10
:10ACA000834202D1900040187047521CD2B2022A4F
:10ACB000F4D3002070470000074A0021CB00D35A8C
:10ACC000834202D1C80080187047491C0906090E4A
:10ACD000F4D000207047000090E800200649496841
:10ACE00005E08A88824201D1886870470968002996
:10ACF000F7D100207047000084E80020F8B507462F
:10AD0000012906D0022924D10121FDF71FFC0028CA
:10AD10001FD13846FFF7D0FF050015D000240D4E97
:10AD20000CE0F8206968604308180188002908D001
:10AD3000F8220021FDF760FA641CE4B270788442C6
:10AD4000EFD30020C0432880024938461431FEF773
:10AD50002FF8F8BD84E80020F3B5064683B008302C
:10AD60000190002000907088FFF7A6FF07002FD009
:10AD7000002523E0F820796868430C182188002911
:10AD800020D00198007801280FD1608800902379A5
:10AD90007088621DFEF7D0F90090002805D0019957
:10ADA00000200870049821880180F82200212046A4
:10ADB000FDF722FA00206D1C2080EDB20748407894
:10ADC0008542D7D30020C04338800098002802D1A4
:10ADD0007088FDF7C1FB009805B0F0BD84E8002045
:10ADE000F3B50546364C064685B0083516220021D7
:10ADF0002046FDF701FA03A800902B79698828887E
:10AE00006A1DFDF7AFFB074644E02E482E49007847
:10AE10000022C01FC0B2009101920290284B6946E7
:10AE20008A897088F63B3946FEF722F8002812D14D
:10AE30002548E979C01EC27891420CD120492846A4
:10AE4000F6390830FDF794FB002804D02178788982
:10AE500089000919488068468289698804AB3846A8
:10AE6000FDF742FA07462078810009194A88002A2E
:10AE700010D0002F05D06A46128A401C20708A80AC
:10AE80000AE002060021920DC9431219401C2070ED
:10AE9000918006E0002F04D00C4821780088814280
:10AEA000B3D32078002806D070882146FDF766FBD2
:10AEB000002007B0F0BD0698298801800A20F8E735
:10AEC00042ED0020EC10FF1F87E80020F410FF1F68
:10AED000F0B585B0044600276846878120790E28A2
:10AEE00067D00EDC082822D004DC022812D0062805
:10AEF00017D117E0254608350A281DD00C287FD128
:10AF000037E010285AD012285DD0162860D01828B3
:10AF100076D162E041484049008808806088FDF7AA
:10AF200033FB6DE003A92046FFF75AFF59E003A960
:10AF3000204600F075F954E0288804A9FDF7CEF901
:10AF4000010014D03648344E00780197401EC0B23C
:10AF5000009602906A466088731C128AFDF788FF8B
:10AF600000281DD160883146FDF714FB48E0012020
:10AF700016E0288804A9FDF7B1F90100F7D02848A8
:10AF80006A880078244E401EC0B20192009602905A
:10AF90006A466088128A731CFDF76AFF002803D096
:10AFA00029886A4691811CE060883146FDF7F8FAED
:10AFB00026E003A9204600F0C7F912E003A92046C5
:10AFC00000F082F80DE003A9204600F01FFA08E027
:10AFD00003A9204600F028F803E003A92046FFF764
:10AFE000BBFE00280CD06178142909D00A492279C7
:10AFF0000A706A4692894A8008716088FDF7D6FA1D
:10B000002046FDF7D9FA07488168002901D020467B
:10B01000884705B0F0BD000042ED0020EE10FF1F94
:10B02000EC10FF1F84E80020F8B504460F460546E3
:10B03000083400896946FDF751F906003AD0307AA4
:10B0400080060ED568460088FFF720FE030006D074
:10B050006888122231469847060002D02BE00E265F
:10B0600029E06E883046FFF727FE010005D114481D
:10B07000FFF722FE01000ED00E80124A0020527807
:10B0800007E0F8264B6846439B5B002B05D0401C2D
:10B09000C0B29042F5D309260DE04968F82250432A
:10B0A00008182146FDF790F8002668882146FDF72C
:10B0B00089FA02E00126208838803046F8BD000079
:10B0C000FFFF000084E80020F3B58BB000200B9E4A
:10B0D0000746039004A800903246337B718930897B
:10B0E0004C4C0D320836FDF73DFA054678E00B98DA
:10B0F000297A4088FDF76CFA070003D00C9869891B
:10B1000001806FE04448002100780191801FC0B2A7
:10B11000424A029000920B983E4B69460A8A408848
:10B12000F63B2946FDF7A4FE0700E7D10398002867
:10B1300034D03A486278C01EC178081D824254D18A
:10B140000398411834480088801F81424DDC0398E1
:10B15000A97A2018817003986989401CC0B222180E
:10B16000090A401C9170C0B203906846028A718837
:10B1700007AB2846FDF7B8F8050015D06946888B5F
:10B1800003996118887003986946401C898BC0B286
:10B19000090A2218401C9170C0B210E01F48C01E5E
:10B1A000C078001D6070D2E70399FF206118887095
:10B1B0000399491CC9B262189070491CC8B217495A
:10B1C0000390C91ECA7813492018F639801CFCF771
:10B1D000FBFF12490398C91EC9784018C0B20390FA
:10B1E000002D84D1039800280CD061780398FDF7D6
:10B1F00005F920700B9821464088FDF7EFF90020F3
:10B200000DB0F0BD002F00D10A270C9930880880BE
:10B210003846F5E742ED0020EC10FF1F87E80020DC
:10B22000F3B587B0079F00243889434D2646083779
:10B23000059064E003A800903B7979887A1D059811
:10B24000FDF790F9049000284DD0408905900498AE
:10B25000017A07984088FDF7BBF9060054D13748BA
:10B2600000210078364A001FC0B20191029000927E
:10B270000798314B69468A894088F63B0499FDF767
:10B28000F7FD060040D1002C30D02D486978C01E53
:10B29000C078801C814239D1294BDB1ED878211817
:10B2A00026480088001F81421DDC04982919807AF5
:10B2B0008870641CE0B204992A184989401C090A64
:10B2C00091701946CA78C4B21B492819F639801CF6
:10B2D000FCF77AFF1A481B49C01EC0782018C4B278
:10B2E0000598884208D1002C10D11EE01448C01ED9
:10B2F000C078801C6870CFE7401C80B205900F4872
:10B300000088001F844295DD002C0CD0697820460F
:10B31000FDF774F82870079829464088FDF764F90E
:10B32000002009B0F0BD002E00D10A26089805992A
:10B3300001803046F5E7000042ED0020EC10FF1FD1
:10B3400087E80020FFFF0000F3B585B000272C4CF4
:10B35000059E27703D46083641E06800305A03A933
:10B36000FCF7BCFF010017D02648274B007800935C
:10B37000401EC0B20022019202900598204B6A46FE
:10B380004088F63B9289FDF773FD070006D0680000
:10B39000315A0698018030E00127F8E71A482178F1
:10B3A000C01EC0780A1817480088431E9A4204DD60
:10B3B000401A1549C91E401EC8702178601C081823
:10B3C0001149C91ECA780E49F639FCF7FDFE0E4830
:10B3D0002178C01EC07808186D1C2070EDB2B07DB9
:10B3E000A84205D9074821780088401E8142B4DB75
:10B3F000059821464088FDF7FDF8384607B0F0BDB6
:10B4000042ED0020EC10FF1F87E80020F3B5054651
:10B4100083B004460835008901A9FCF75FFF274681
:10B42000E8370646002822D0307A80060ED56846D6
:10B430008088FFF72BFC030006D06088122231467B
:10B440009847060002D013E00E2611E0002000907D
:10B45000AB7829886088EA1CFDF76EFE060007D1EC
:10B46000387E002807D16088FDF7CAF803E001267E
:10B47000049829880180387E002802D0002005B079
:10B48000F0BD3046FBE700000149886000207047AE
:10B4900084E80020F8B504460246F82042431948E3
:10B4A0000025074645700C377868002807D0002033
:10B4B000C100C919401C00064D60000EF8D0124EA4
:10B4C00000213046FCF798FE002001466143C9B2D6
:10B4D000F82251438B190B49C2000C31521800213C
:10B4E000536005E0F8274F435368491CDD53C9B248
:10B4F000A142F7D3401C0006000EE6D0014844707C
:10B500000020F8BD84E8002054EB00207CB50C78C6
:10B51000069D022C0ED14C682678647824023419DA
:10B52000054EA4B2F44205D1022400950194FDF722
:10B5300057FC7CBD01207CBDFED6FFFFF8B5069808
:10B5400000271D4614460E46002801D00B20F8BDEA
:10B5500030780021022801D019704DE0706802781F
:10B56000407800021018152280B25202801A03009F
:10B57000FCF730FE0504121F1A254100F068FCF7A5
:10B58000BFFEC2B20798824200D902462A70F16813
:10B590002046FCF719FE30E0F0680221008829708F
:10B5A0002070000A607028E0062028700246F168CA
:10B5B000EEE701202870F068007820701DE0F06848
:10B5C000002816D008212970017821700188090A05
:10B5D00061708178A1704188090AE1700179217157
:10B5E0008188090A61718179A171C088000AE071BE
:10B5F00003E0297001E0297001273846F8BD10B535
:10B600000B78840702D50224234301E0FD24234064
:10B610000B7003070B7802D50824234301E0F724BD
:10B6200023400B7083060B7802D52024234301E0CE
:10B63000DF2423400B700A21084201D1810603D583
:10B6400010780C21084304E0002803D11078F3217E
:10B650000840107010BD0000FFB581B008780024CC
:10B660000A9E1F460D4602280FD16868017840786F
:10B6700000020818152180B24902401A09D0012899
:10B6800029D0022848D003283CD00124204605B008
:10B69000F0BDE868FCF734FEC0B2864205D8F01968
:10B6A0000090152803D90D24F0E70724EEE7E86899
:10B6B0003A4680190399FCF787FD0098EA6880B242
:10B6C000002111541C4840680028DFD0016800297F
:10B6D000DCD0002012E0002E12D1022BE3D103991E
:10B6E000E8680A78497809025118018012484068D0
:10B6F0000028CBD001680029C8D001208847C5E7C1
:10B700000B24C3E7002EFBD1062BCCD10622E86820
:10B710000399FCF759FDB9E7002EF1D1012BC2D1F5
:10B7200003980078002803D0012801D08024ADE7D9
:10B73000E9680870AAE70000E4E8002010B51228C4
:10B7400001D3052010BD0C4B9C6B0122824010469A
:10B7500020439863586B90435863DC6B002907D0F3
:10B7600020469043D863186B02431A63002010BD33
:10B7700010462043F6E7000000800040084A0428F5
:10B7800007D2012307E0184300E0984350610020EE
:10B79000704701231238834050690029F5D0F2E741
:10B7A0000038004070B50F4D00242E197078022823
:10B7B00007D9E0B200F05AF9E2B20146104600F0B3
:10B7C00071F9232C0ADA7078022807D9E0B200F068
:10B7D0004DF90C216143491920314871641C232C17
:10B7E000E3DB70BDB4EF002070B502211020FEF73E
:10B7F00083FE1020FEF752FE114E00240C20604301
:10B80000801920300079002813D0E0B200F072F9DE
:10B81000E5B2284600F02AF900280ED000210C22BB
:10B820006A43921920325279824202D0284600F0AF
:10B830003FF8641C232CE1DB70BD0121EFE7000021
:10B84000B4EF0020F3B5194E002481B0074601255E
:10B850002846A040384225D00299084201D1012053
:10B8600000E000200090E0B2009900F021F80C20E8
:10B87000604380194168806800290ED0002807D0F5
:10B880000098002802D00021E0B203E00121FBE78C
:10B89000E0B20021FFF752FF04E0002802D0E0B23E
:10B8A0000121F7E7641C122CD2DBFEBDD8EF00208B
:10B8B000074A0C2343439B185A68002A01D00029E9
:10B8C00004D09A68002A02D0012900D1104770479D
:10B8D000D8EF002010B50448C16B034A403210680D
:10B8E000D060FFF7AFFF10BD0080004010B50E48DC
:10B8F00080680007000F062807D007DC02280BD05D
:10B90000042802D1012000F029FD10BD072806D02F
:10B910000C28FAD10220F6E700F046FD10BD0248DF
:10B920004030C06B10BD000000400040C306DB0E7D
:10B9300001229A40064B40098000C0180029C168C6
:10B9400001D0114300E09143C16000207047000026
:10B950000038004030B50C4605460121FFF7E6FFF0
:10B96000A9080748890009188869AA07D20EFF2389
:10B9700093409843944020438861002030BD0000EC
:10B980000038004010B5114C2078002801D0072065
:10B9900010BDFF21C9310D48FCF7C3FB0120207009
:10B9A0000B490020086348630A4908624862022183
:10B9B0001020FEF7A1FD1020FEF770FD064A074992
:10B9C0000D2000F053F9002010BD0000B4EF00205E
:10B9D0000080004080F00040E9B70020A5B70020BB
:10B9E00030B50D460446042803D320461F380328EB
:10B9F00003D801212046FFF7C1FE00212046FFF7B2
:10BA000095FF01230B4A122C08D2A3405068002D49
:10BA100001D0184300E09843506008E0123CA34076
:10BA20001069002D01D0184300E0984310610020F8
:10BA300030BD00000080004070B50C460A21FCF7C4
:10BA4000DDFC4A00891801221346491C8B404D1C1D
:10BA5000AA40134382000448121890688C4098430F
:10BA600004439460002070BD00F000400C4A0C4B71
:10BA70000121403A122807D281405068084201D083
:10BA8000106809E0186907E012388140106908421F
:10BA900001D0D06800E05869084000D0012070470C
:10BAA00040800040F8B50E4605460A21FCF7A6FC8A
:10BAB00048000918EA060124D20E204690406A097F
:10BAC00093000B4A9A18136A034313628C40084F81
:10BAD0002846803F0A21FCF791FC8000C01981684C
:10BAE000002E01D0214300E0A14381600020F8BD79
:10BAF00080F0004070B5044618480C2262431518C7
:10BB000069680126002902D1A968002906D01349D5
:10BB100024390919122C03D3032302E0122070BD2B
:10BB200004234B700121815400212046FFF758FF68
:10BB30006868002810D0A86800280CD02046FFF7BD
:10BB400095FF002801D0012100E000212046FFF7E9
:10BB5000F5FD002070BD00263146F7E7D8EF002044
:10BB6000F8B50C48F0C80C48007800F0BDF9012089
:10BB700000F074F9FFF706FF3B463246294620469F
:10BB800000F01AFA7821054800F04AFA04A001F002
:10BB90009DFDF8BDD8E40020E312FF1FDCEA002081
:10BBA000616C6C2064726976657220696E697420BC
:10BBB0004F4B210A0000000010B5044811224368D1
:10BBC0001521034802F020FB002010BDA8EA002048
:10BBD0001CF0004010B578210B48FCF7A2FA0B4886
:10BBE0000078012805D0022806D0032806D00428B2
:10BBF00004D1FCF70BFD01E0FCF70EFD05490448FC
:10BC00000863002010BD00009CF10020A8EA00207D
:10BC100019CF0020C008FF1F10B51249034609784C
:10BC20001220012914D0042912D072B600210E4A24
:10BC30000C244C43145D002C11D09C420CD10C23DD
:10BC40005943012089184870FCF7E0FC002006E009
:10BC5000FCF7DCFC002010BD491C0A29E8DB62B6B9
:10BC600010BD0000A8EA00209CF1002030B50D4C6A
:10BC700000230C255D43655D854201D1072030BD61
:10BC8000002D04D05B1C0A2BF3DB032030BD0C25F8
:10BC90006B431B19F9D000245C7018709A60204621
:10BCA000596030BD9CF1002070B5FFF785FF0A4D4B
:10BCB000002420460C214843295C002909D0401962
:10BCC0004068002800D08047641C0A2CF1DB00206B
:10BCD00070BD122070BD00009CF1002070B51549A8
:10BCE0000023097801290FD004290DD072B6002154
:10BCF000114A0D460C244C43165D002E0FD086428F
:10BD000005D1A418657007E0FCF780FC0CE0A418CE
:10BD10006478002C00D05B1C491C0A29EADB002B4C
:10BD200004D0FCF773FC62B6002070BDFCF774FC15
:10BD3000F9E70000A8EA00209CF1002070B50A4D48
:10BD4000002420460C214843295C002909D04019D1
:10BD50008068002800D08047641C0A2CF1DB00209A
:10BD600070BD122070BD00009CF1002070B51A4912
:10BD7000082009684865886518490A20087018492C
:10BD800001200870174C0025257000F035F8164882
:10BD90008068411C01D0207000E025701348042108
:10BDA000C16113498160C160016112494161012192
:10BDB0000A20FFF741FE0D480D230F2212211430F7
:10BDC00002F022FA00210420FEF774FB0121022078
:10BDD000FEF770FB70BD0000C0EA0020E112FF1FFB
:10BDE000E212FF1F0013FF1F0040001100F000408F
:10BDF000B66DDB36B6EDC3B070B515480022C0682D
:10BE00000424866B1025134813493300FCF7E2F92C
:10BE1000070808050C0E1308050005600C600DE00E
:10BE200020220260052004E0302305E04022026069
:10BE30000620086002E0602303600A60FCF7F2FB62
:10BE4000FCF7F6FB02F046F801F0F6FE70BD0000CC
:10BE5000B4EA00202010FF1F2410FF1FF8B51F4D6B
:10BE60001E4F08351E4C1126012820D000281DD158
:10BE700000211020FFF7E0FD00211120FFF7DCFD7D
:10BE8000032308220921284602F0BEF906220023D6
:10BE90001146284602F0B8F916231B221F21384606
:10BEA00002F0B2F92068C16AB143C162F8BD05234E
:10BEB0001B221F21384602F0A7F90A4B0722102146
:10BEC000284602F0A1F9062201231146284602F075
:10BED0009BF92068C16A3143E7E7000014F0004095
:10BEE000C0EA0020FB030000F8B5FF222D322A4EE5
:10BEF0002A4C002832D0012329499B0402282FD044
:10BF00008025012831D00E681E430E604B6806461E
:10BF10000B360127B7403B434B604B682B434B60CC
:10BF2000032832D0042832D01E492160521E120448
:10BF3000120CFBD103461A480321001F02F064F9DA
:10BF400001208007C169184D890722D58069000545
:10BF5000010E491C2068FCF751FA1BE02660E5E75A
:10BF60000D681D430D601149DFE70F681F430F6027
:10BF70004B6801277F05BB434B604B683F123B4337
:10BF80004B604B682B434B60E8E70949CDE7094913
:10BF9000CBE720682860F8BD0048E8011810FF1FB3
:10BFA00040F0004000D8B8051010FF1F0024F40036
:10BFB000006CDC020090D0031FB5104C20780028E4
:10BFC00002D0112004B010BD20210C48FCF7A9F8C4
:10BFD0006846407A002801D00520F3E768460FC87C
:10BFE00010340FC4203C02F095F901202070044A5F
:10BFF00000210820FFF73AFE0020E3E77CF1002053
:10C0000015E3002010B5054A927E002A02D002F006
:10C0100041F910BD02F00AF910BD00007CF10020CA
:10C0200010B50D4B1C781A1D002C05D09B7E002BE3
:10C0300004D01378002B03D0072010BD052010BDBD
:10C0400072B69060D18000205080908001201070E6
:10C0500062B6002010BD00007CF100201CB5044633
:10C060000F4884421AD0012907D0022916D1012194
:10C070002046FCF76BFA002810D10A492046FCF74D
:10C0800097FE0848001F0168002907D004206A466F
:10C090001070002050700190684688471CBD000059
:10C0A000FEFF0000D4E9002010B501F0B3FD084800
:10C0B000017A002908D00121017000214172FF306E
:10C0C00004490130C16110BD01F07AFD10BD0000CE
:10C0D00094EE00200050FF1F10B5642001F09AFD7F
:10C0E0000748017A002908D001210170002141721E
:10C0F000FF3004490130C16110BD01F061FD10BD88
:10C1000094EE00200050FF1F0020401C1028FCDB94
:10C11000FEE70000F8B57A49784A7B4B7948CA6057
:10C12000D861002004468300401CD450FF28FADD6B
:10C13000C868764A014680318A60FF226F320A253C
:10C140000565C262724A13788363724BC3611378C8
:10C15000022B0AD016781423012E07D01678032E4E
:10C1600004D01378042B40D001E0102303626A4B03
:10C170004361684B2826963383613C23CB6036238A
:10C18000C3634664082303643A264E6031260E607A
:10C190003B26CE634627CF64342639274031C8C1B9
:10C1A00032274F6002274F6142270831C8C11E273E
:10C1B0004F60CE608B6005264E6142260E615A2686
:10C1C00060390E614B613C238B61AF23DB00036060
:10C1D0001378022B0BD01378012B0AD01378032B82
:10C1E00009D01378042B08D009E01823BEE71523E3
:10C1F00004E00D2302E0456001E009234360FF23D2
:10C200002D338360C360A0230361444B83647D238B
:10C21000DB00434ECB67C6644362424B83627323A9
:10C22000C365062343658365C31D0826F9330227CA
:10C230001E6047664B27FF0087660927C7663A4F8F
:10C24000076746678467BE10C667384E344830605B
:10C25000107802280AD016780F20012E0AD01678FE
:10C26000032E0AD0107804280AD00CE01720C861E9
:10C27000202007E0C861132004E00C22CA6101E01D
:10C280000D20CD610862254888627D20C000886746
:10C29000642048620520C86202200863C8208C63BD
:10C2A00048633820586022481864AF20C000986165
:10C2B0004B20C000D8611F4818627D2000015862E1
:10C2C0001E491D4888601D491D48803188621B49F0
:10C2D0001C48C031086119481B4AC038094B8262AA
:10C2E0001A4A803B1A611A4AC2621A4A82601A4884
:10C2F0000863FEF769F9FEF777F9F8BD000CFF1F38
:10C30000B4EA0020000CFF1F0010FF1F4025012091
:10C31000E312FF1F4605000040787D0150C3000076
:10C32000F81100006A180000204E00009412FF1F50
:10C3300000400011C409000035C900200009FF1F9A
:10C3400039DC002071A20020DDC600204D920020C3
:10C350008DC5002045A1002061C4002070B5104C9F
:10C360008AB0227E0F496D46002A0BD00D4A8032DA
:10C370005268D3B2002202E00E78AE54521C9A42A8
:10C38000FADB03E00A7D012309782970E1690029BD
:10C3900004D0287506952B7705A888470AB070BD8C
:10C3A0007CF10020004000403EB51C490A78081D81
:10C3B000002A31D00A46097E00292DD0917E00291D
:10C3C0002AD00178022927D1818844888368091BF3
:10C3D00089B2102901D9102101E000290BD0104D9C
:10C3E0000A46491E89B2002A16D04288541C44804D
:10C3F0009A5C2A70F4E7012101700021418081805C
:10C40000D169002905D0074A6C460DCA0DC468469B
:10C4100088470820FFF762FC3EBD00007CF1002049
:10C420000040004028E600200B480021C174027D36
:10C43000521CD2B20275022A09D1028AFF23520489
:10C44000120C013302829A4200D90382017503481B
:10C450004169491C41617047421DFF1F503CFF1F4D
:10C4600010B5002072B61049104CC968FF3119315F
:10C470000CC96168062902D32469E40701D00021B0
:10C4800000E08908D2188A4203D2094909680029C4
:10C4900008D0084A0421117007498A69521C8A6130
:10C4A00062B610BD0120FBE7B4EA00200010024094
:10C4B0005812FF1F2312FF1FD03BFF1FF8B507467E
:10C4C00004462037387F7877E1882089FCF7B6F872
:10C4D000264680360090B07C294D012830D1B28AA2
:10C4E0002189E088FCF7B0F8002829D0B18A20899A
:10C4F000FCF7A4F803281DD9224801220178342032
:10C5000041434B192E20C254B28A9A85B87F685491
:10C5100018462146263005226431FBF755FE19489E
:10C520003421007825224843401921463F31401CE0
:10C53000FBF74AFE14492046FCF78CF80020B07443
:10C54000104E34213078484340192E21095C0129CE
:10C5500010D1E188808DFCF771F80121C903884270
:10C5600008D9307834225043002140192E2211542A
:10C57000E188418620460099FCF772F87877F8BD8B
:10C5800014F200204D12FF1F2C12FF1FF8B5504C63
:10C59000FCF76CF826463546002780352036002803
:10C5A00015D1E06E002812D14A48806900280ED1CA
:10C5B0004948007800280AD12078002807D130782F
:10C5C000002804D07A21095D002902D010E0678498
:10C5D0000EE0297900290BD1A97C002908D1FF217F
:10C5E0002131095D002903D1012801D1E08C60844B
:10C5F000E088618C4018401C20812046FCF73CF804
:10C60000012803D16784E088401C20812879012813
:10C6100043D1EA882189E088FCF716F800283CD04D
:10C62000E8882081214688312046FCF72BF8E889EC
:10C63000E084002030706084012020712089E1892D
:10C640004018A081E188E888FBF7F8FFE18E6A894D
:10C6500048438718A889884207D1298A628F914266
:10C6600003D1E989228F914206D0298AEA890B09F0
:10C670004108E078FCF70CF8297AB174A889E086C3
:10C68000E8892087288A60872046FCF707F820463B
:10C69000FCF70AF80020287100E0E78EE069B84254
:10C6A00003D13079618C884206D02346327C618C7C
:10C6B00014333846FBF7FEFFE761608C307120468B
:10C6C000FFF7FCFE2046FBF7FBFF0020F8BD000053
:10C6D0006C1DFF1F6832FF1FC83BFF1FF8B56C4879
:10C6E000FF21027839314A436A495418A278002A56
:10C6F0004DD02189E1800078FF2339335843664EBD
:10C70000644BB279C01800252030002A0BD1727A10
:10C71000002A08D1B27A002A05D1F27A002A02D181
:10C720006278002A12D0E2898918A18125710078E7
:10C73000012801D1E08C60845848817C01292FD1E7
:10C74000857400212046FBF7C1FF29E021780029EC
:10C7500006D0E01DF930018B491C0183658405E09A
:10C7600025710078012801D1E08C6084A189E088DE
:10C77000814215D121794A4D002901D0052807D0E1
:10C7800008212046FBF7A8FF286C401C2864F8BD50
:10C790003E212046FBF7A0FF686C401C6864F8BD92
:10C7A000707800281AD03F48C068808D800702D575
:10C7B0000121202001557A20005D00280ED120465D
:10C7C00080300179002909D1807C002806D1FF2022
:10C7D0002130005D002801D1E08C608420790028A0
:10C7E00000D06584FBF77EFF07000AD020200555A6
:10C7F000002604E0FBF77CFF002802D0761CBE4236
:10C80000F8DBA0780028CAD02046FBF777FF012884
:10C81000C5D002212046FBF777FFE078FBF77AFFCF
:10C820002078002804D06169A0694018A06100E068
:10C83000A561FBF775FF0128B1D0FBF77FFD1A4911
:10C840000968884201D9451A02E0184A511A0D18A0
:10C850000F480178FF20393041430E480818C46959
:10C86000203000791249401C48434443204600F0E0
:10C8700023F8104800684019FF307330844201D813
:10C88000002801DA201A00E0C820FBF7ABFDF8BD54
:10C890004D12FF1F6C1DFF1F9C3CFF1F843CFF1FA0
:10C8A000D03BFF1FB4EA00205C12FF1F40420F0084
:10C8B000710200006012FF1FF0B51949FF240978CA
:10C8C0001648184A3934614303788C1816481749BA
:10C8D000FF2591350268C968002B10D0CF6C0E6F10
:10C8E000B74200D9CE64591E022907D8E18EA94269
:10C8F0000FD37D21C9004B4399180160F0BD0C4B4B
:10C900001B68CB64E18EA942F8D37D21C900511880
:10C91000F3E7FF322D320260F0BD00005212FF1F1C
:10C920004D12FF1F6C1DFF1F6012FF1FB4EA002095
:10C930009412FF1F70B54A484A4D00684A4C0128BE
:10C940000FD14A4EB06F401CB067FBF709FD61780C
:10C95000474A09010843B16F0907090F5054A86AF3
:10C96000A061444868610120E86028602078424B5B
:10C97000424A012805D11878022809D001208004F4
:10C980001061506BC1B23E480078002803D01AE015
:10C990000120C004F4E73B4800254557002D3A4DDF
:10C9A000455706DB2D04002686573002281840180C
:10C9B00008E0FF352D040026865730022818334D35
:10C9C0004018401950633248FF22007839325043F2
:10C9D000304A80182030007FA080022901D2022135
:10C9E00002E0502900D950211A7824481430022A34
:10C9F00011D0294A1578294B1E78B5420FD91578E0
:10CA00001B78EB1A891E49104B4311784901C91A4A
:10CA100010314B1104E0224A1578224BECE71378D1
:10CA20000022072101F0F0FBFBF79AFC607002285E
:10CA30000BD0052801D0042806D1FF20FBF776FE95
:10CA4000FF200D30FBF7F2FC70BD17480078052879
:10CA500002D05820FBF7EAFC2820FBF767FE70BDE8
:10CA60005812FF1F00100340B4EA0020D03BFF1F04
:10CA700048F20020FF3F0000E212FF1F8000034049
:10CA80005312FF1F0013FF1F00000000FFFE0000F5
:10CA90004D12FF1F6C1DFF1FDD12FF1FDE12FF1F57
:10CAA000DF12FF1FE012FF1F1D12FF1FF7B5064622
:10CAB00086B0002004900390079810E125290AD041
:10CAC0000499002901D0039802E00490002003900B
:10CAD000401C039000E10398002805D081B204981F
:10CAE000B047002004900390002504220823102161
:10CAF0000798401C079000782B2819D004DC2028C8
:10CB000018D0232804D117E02D280FD0302815D0B5
:10CB1000079A00271078FF430346303B3C46092B19
:10CB20000FD807A801F056FB044615E00D43DFE7D8
:10CB30001543DDE71D43DBE7202000E0012005432E
:10CB4000D6E72A2808D1521C0898079210C80890E6
:10CB5000002C01DA64420D43079938460A782E2AE0
:10CB600014D1491C079108780246303A092A03D8A3
:10CB700007A801F02FFB06E02A2806D1491C0791DF
:10CB8000089901C90891002800DA0020079A39465F
:10CB90001778682F03D06C2F01D04C2F02D1521C74
:10CBA00039460792079B0A221B786E2B2CD00CDC8F
:10CBB000632B2AD004DC412B26D0582B11D19BE0CB
:10CBC000642B01D0692B0CD19AE0732B3DD004DC8F
:10CBD0006F2B77D0702B04D164E0752B73D0782B3A
:10CBE0006FD0252B09D0252069460872012102A8A3
:10CBF000B04707980178002975D0079869460078F2
:10CC00000872012102A8B04766E0E80609D4202591
:10CC1000641E002C05DD68460572012102A8B0479C
:10CC2000F6E708986A4601781172001D0890012104
:10CC300002A8B047202504E068460572012102A839
:10CC4000B047641E002CF7DC46E0089A02CA08923E
:10CC50000091002901D12DA100910A4600E0491C54
:10CC60000B78002B01D0401EF9D28F1AE8060AD4A7
:10CC700020252046641EB84205DD68460572012164
:10CC800002A8B047F5E7B9B20098B047202504E004
:10CC900068460572012102A8B0472046641EB842CA
:10CCA000F6DC19E0611C02D1082401210D4300903B
:10CCB0000898019502C823461022089009E001E077
:10CCC00001E01BE00822089B02CB0893019500902D
:10CCD0002346304600F03AF80798401C0790017848
:10CCE000002901D0EAE60EE00398002802D081B2C4
:10CCF0000498B04709B0F0BD402215431022E2E786
:10CD000002231D43DFE7401E0790E5E73C4E554CEC
:10CD10004C3E000010B50B49022008700521C902E5
:10CD20000948FBF709FDFFF7F5F9FEF753FFFFF799
:10CD30001DF8FEF715FF00F0C7F900F074FC0020A5
:10CD400010BD0000E312FF1F00580020FFB507468A
:10CD5000574897B0219D006815901E460A46680600
:10CD600002D5534840681590E80601D56D086D005E
:10CD70001998801E232870D2E80701D0302100E0E6
:10CD8000202110A8017300210172A80710D5002AE4
:10CD900004DA2D2010A90872524208E0680701D574
:10CDA0002B2002E0280703D5202010A908725E1E60
:10CDB000A80608D51998102802D0082802D002E049
:10CDC000B61E00E0761E0024002A14D010461999E1
:10CDD000FBF714FB159A525C01A90A55641C02006A
:10CDE000F4D12098844200DD20942098361A112036
:10CDF00005420BD00EE03020694608710124F0E7AF
:10CE000020206946087001216846B8473046761EE2
:10CE10000028F5DC10A8007A002802D0012112A811
:10CE2000B847A80616D51998082802D0102802D0AD
:10CE300010E0302009E03020694608700121684682
:10CE4000B8471B48006820304078694608700121C7
:10CE50006846B847E80604D507E027E0012113A893
:10CE6000B8473046761E0028F8DC30252099481E49
:10CE70002090A1420BDD684605700121B847F5E717
:10CE8000285D6946087001216846B84700E001AD99
:10CE90002046641E0028F3DC20243046761E00283D
:10CEA00004DD684604700121B847F6E71BB0F0BD09
:10CEB000A0EA002070B500241220FBF72DFA1549D6
:10CEC000122208600021FBF797F920460124FBF7A6
:10CED00039FC02252046FBF73BFC03242846FBF7E0
:10CEE0003DFC04252046FBF73FFC05242846FBF7C4
:10CEF00041FC06252046FBF743FC07242846FBF7A8
:10CF000007FD08252046FBF72DFF284600F022F8F4
:10CF100070BD000060EA002010B50C4800680028D1
:10CF200012D10B4AD168126909781268002A03D01D
:10CF30004300D35A002B03D1401CC0B28842F5D322
:10CF4000884201D3FBF722FC10BD00005812FF1FDE
:10CF50000008FF1F30B5474D89B068700121684651
:10CF60000171072202720022828101740C218182E8
:10CF700001838283FF21F5310184C3203E4C02AA44
:10CF800001218000FBF78CFD01AA01213B48FBF742
:10CF900087FD3A4803AA0221401CFBF781FD00F0FF
:10CFA000C1F8002802D02078401C207031480622A9
:10CFB0001D302146FBF708F92E4A30480C32192162
:10CFC000801CFBF76DFD312004AA01210001FBF755
:10CFD00067FD2A4805AA02210C30FBF761FD2748AE
:10CFE00006AA02210D30FBF75BFD244807AA0221A7
:10CFF0000E30FBF755FDC52008AA02218000FBF783
:10D000004FFD1C4A152125320020FCF7DBF80121D9
:10D010001F20FBF733F9FF24913421460620FBF74C
:10D020002DF921460720FBF729F921460820FBF7B7
:10D0300025F921460920FBF721F90024E443204685
:10D04000FCF7B0F82046FBF77DFEFBF7CFFB022193
:10D05000687800F06DF80A48FEF716FA0120FBF731
:10D060009BFB0120FBF79EFB01216878FBF7F4F89E
:10D0700009B030BD64EA00203112FF1F0503000033
:10D08000C1D2002010B50C4608040AD50D484078DE
:10D09000FBF7B8F8002801D0FBF7BAF80120C0036D
:10D0A0000CE0E00705D00748001DFBF703FE012058
:10D0B00004E0A00704D500F029F80220604010BD6C
:10D0C000002010BD64EA002010B50D48416B0D4AE8
:10D0D0000907090F426309D001290AD00A48032928
:10D0E0000AD0062901D10021417010BD04F038FF9B
:10D0F00010BD01F03BF810BD0121017010BD000012
:10D1000000F00040201100005CEA002010B5044847
:10D11000816941616821872000F06AFD10BD00002F
:10D1200094EF002001484078704700005CEA00203E
:10D1300010B5074A5070518000F042FD04480C3091
:10D1400000F0DCF9034800F00DF8002010BD0000ED
:10D1500094EE0020A9D900200149C01EC880704764
:10D1600094EE002070B505460B48FBF7B1F80B496B
:10D170000B48FBF71DFE09480A4A08210830FBF757
:10D1800091FF040002D008A000F0A0FA0348001F9D
:10D190000560204670BD00005DC00020D4E900207D
:10D1A000FFFF0000F4E50020416464204F5441205B
:10D1B00073657276696365206661696C6564210ACE
:10D1C00000000000FEB50446014623A000F07EFAF0
:10D1D000264D052C07D028780126254F052813D089
:10D1E000022807D008E021492148891C0930FBF7B3
:10D1F0001BFB2FE0032C02D0012C19D02AE00820C1
:10D20000FAF7EEFF202825D1684606702021082075
:10D21000FBF734F820210920FBF730F800210846FD
:10D22000FBF72CF86A4601213846FBF739FC11E080
:10D23000C12069468000FBF7F7FA6A465079D07141
:10D2400010799071D078507100201071D070082141
:10D25000FBF7D8FA2C70FEBD6F74615F47617053A5
:10D260007461746543423A202564000064EA00203A
:10D270000503000038B5044669460E48FBF7D4FAAA
:10D280006A460D491088FBF705FF6A4611880B4A6C
:10D2900091420CD0C0070AD007480022483040898C
:10D2A0002080684621460088FBF782FA38BD1220AC
:10D2B00038BD00000E030000D4E90020FFFF00008D
:10D2C00070B5054640782979172810D002290DD16C
:10D2D00009482C890088844200D904462046FFF77B
:10D2E0003BFF2989224605A000F0F0F970BD0AA095
:10D2F00000F0ECF970BD0000EE10FF1F4D545520FA
:10D3000073697A65207265713A202564207C2073E8
:10D3100065743A2025640A005B4741545420544FF9
:10D320005D2025780A00000070B50C46022505A096
:10D3300000F0CCF9207AC00601D5082070BD28463F
:10D3400070BD0000526561644174747243420A000A
:10D35000FEB584461546087A0026089A1F460C46F4
:10D36000800601D50820FEBD20780121022821D0A9
:10D37000284A6089528D904209D126480C380268AB
:10D38000002A04D0684601704770019590472148F3
:10D3900061894030408F81420AD11E480C380168B3
:10D3A000002905D00222684602704770019588471F
:10D3B0003046FEBD60680378407800021818164BAE
:10D3C00080B29842F4D1009201913B462A46214610
:10D3D0006046FBF705FD0600EAD10E4C0C3C2068C8
:10D3E0000028E5D0697828780902401885B22946D6
:10D3F0000AA000F06BF921680029D9D0012D07D0CF
:10D4000006206A4610700020507001906846CEE7F2
:10D410000520F6E7DCE900200229000043434344ED
:10D42000207365743A205B25645D0A00F8B5104DE1
:10D430000446A84201D00620F8BD0E48FDF77EFA4A
:10D440002004000C0BD0012600243603770160195C
:10D45000FDF774FAA419BC42F9DB0020F8BD2046A0
