:020000041103E6
:1020000003B40148019001BD41A0FF1F03B4014882
:10201000019001BDD554FF1F03B40148019001BDDB
:102020008D54FF1F03B40148019001BDA5AEFF1FF1
:1020300003B40148019001BD19A0FF1F03B401487A
:10204000019001BD959FFF1F03B40148019001BDA0
:1020500029A0FF1F03B40148019001BD718CFF1F2F
:1020600003B40148019001BDBF54FF1F03B40148F0
:10207000019001BDBF54FF1F03B40148019001BD91
:102080005569FF1F03B40148019001BD096AFF1F94
:1020900003B40148019001BDA9FDFF1F03B401482D
:1020A000019001BDF5FDFF1F03B40148019001BD82
:1020B00025FCFF1F03B40148019001BD55FDFF1F22
:1020C00003B40148019001BD5DFEFF1F03B4014848
:1020D000019001BDDD94000003B40148019001BDF1
:1020E000F986FF1F03B40148019001BDA586FF1FBB
:1020F00003B40148019001BD8D54FF1F03B4014892
:10210000019001BD4108000003B40148019001BDE8
:10211000516BFF1F03B40148019001BD690200002B
:1021200003B40148019001BDEF54FF1F03B40148FF
:10213000019001BDCD69FF1F03B40148019001BDAD
:10214000296AFF1F03B40148019001BDF9F3FF1F85
:1021500003B40148019001BDF1B4FF1F03B401486D
:10216000019001BD7181000003B40148019001BDDF
:102170002DB4FF1F03B40148019001BDA56AFF1FE4
:1021800003B40148019001BD05B5FF1F03B4014828
:10219000019001BDE9B4FF1F03B40148019001BDE6
:1021A000A90A002003B40148019001BD9D87FF1FCB
:1021B00003B40148019001BD9D9BFF1F03B401487A
:1021C000019001BD9DD1FF1F03B40148019001BDE5
:1021D0004DA9FF1F03B40148019001BD35D2FF1F77
:1021E00003B40148019001BD295AFF1F03B40148FF
:1021F000019001BD4508002003B40148019001BDD4
:102200006D5AFF1F03B40148019001BDB1D3FF1FF8
:1022100003B40148019001BD9502000003B40148D8
:10222000019001BD4F03000003B40148019001BDBE
:102230004103000003B40148019001BD13F0FF1FEA
:1022400003B40148019001BD59A9FF1F03B401481F
:10225000019001BDF1D1FF1F03B40148019001BD00
:10226000D1D3FF1F03B40148019001BD198CFF1F9A
:1022700003B40148019001BD85AEFF1F03B40148BE
:10228000019001BD6941010003B40148019001BD05
:10229000C13C010003B40148019001BDE1AFFF1F43
:1022A00003B40148019001BD5D01002003B4014861
:1022B000019001BD01FEFF1F03B40148019001BD63
:1022C000116AFF1F03B40148019001BDAD69FF1FF2
:1022D00003B40148019001BDA56BFF1F03B4014881
:1022E000019001BDD909002003B40148019001BD4E
:1022F00065FDFF1F03B40148019001BDCDADFF1F77
:1023000003B40148019001BD19AEFF1F03B4014899
:10231000019001BD15F0FF1F03B40148019001BDFC
:1023200011F0FF1F03B40148019001BD71B2FF1FFE
:1023300003B40148019001BD11D2FF1F03B401484D
:10234000019001BDB9DEFF1F03B40148019001BD3A
:102350005DFDFF1F03B40148019001BDB1FEFF1FE9
:1023600003B40148019001BDC9FDFF1F03B401483A
:10237000019001BD7B9FFF1F03B40148019001BD87
:1023800085FEFF1F03B40148019001BDD1B4FF1FBA
:1023900003B40148019001BDCD88FF1F03B401487B
:1023A000019001BDC5F8FF1F03B40148019001BDB4
:1023B00099F5FF1F03B40148019001BDB154FF1FFF
:1023C00003B40148019001BDAFB3FF1F03B401483E
:1023D000019001BDE7B3FF1F03B40148019001BDA7
:1023E000E1B4FF1F03B40148019001BD3D0100208D
:1023F00003B40148019001BD4D010020014948602E
:1024000070470000341A00200A4670B50146342097
:10241000154B4143C8180579124C002D02D159586B
:10242000002904D02821095C012902D018E00D24DC
:1024300016E003240D4E0E4B002128254D43ED18C8
:102440006D8CB54209D0954207D12C30FFF7D8FDED
:10245000002402200AF08EFA02E0491C0529ECD380
:10246000204670BD21240000448A0020FFFF0000A8
:10247000B4900020F7B50746274E052527488C461F
:1024800000242146282251430A18528C244B9A4298
:1024900014D0624515D128225443025BBA4201D0C0
:1024A000042636E008181022801C0299FFF7AEFDC2
:1024B000002801D006262CE000262AE0052D00D1B8
:1024C0002546641C052CDCD3052D22D02C46282261
:1024D00054431248614626187184B01C1022029998
:1024E000FFF79AFD0D4829460753782047430D48CA
:1024F00038187030FFF784FD3246243210210298DC
:102500000BF0FEFA00202036B071064610200AF0CB
:1025100031FA3046FEBD000020240000B4900020B7
:10252000FFFF0000F48C0020F7B52F4A0E462D4C1B
:10253000518984462546FF2901D92C48FEBD00203B
:102540002B4A08E0142343439B181B8AB34201D152
:10255000002504E0401C0B468842F3D318461421A2
:10256000484323491022471861463846FFF754FD77
:102570003E820298B874A54203D11B484189491C88
:1025800041811C480078022826D11748A646818838
:102590008689C58843898C468189A94201D16146D3
:1025A00002E0491C89B281818181B14201D10D488B
:1025B000FEBD00220BE0142714467C430C4FE419A7
:1025C000248A8C4202D100218E46E5E7521C9A42B1
:1025D000F1D304498E45DFD108200AF0CBF9002061
:1025E000FEBD0000FFFF0000F618002025240000BB
:1025F0007C910020181A0020FFB593B015461C46A8
:102600000EAA00211C9F139800F080FB0D9000285B
:1026100043D1FFF707FD14980121C01C86B208A81A
:1026200001728572290A41720473210AC17287738B
:10263000390A41731D990174090AC17301A80090F8
:1026400009230AAA10210EA80BF0B8F968460179EF
:102650007820134C464335194222515528462F46BF
:1026600001A93230223710220131FFF7D5FC05A92C
:10267000102201313846FFF7CFFC01200003A053A0
:10268000139878214843001974301499FFF7B8FC67
:102690001398686704200AF06DF90D9817B0F0BD23
:1026A000F48C00207FB50C463421184A41438D1824
:1026B0002821495D144E012923D1217801290CD00C
:1026C00061886A4691806B46012201A90BF046F8A9
:1026D00000280DD0052004B070BD6B4601AA012171
:1026E000201D0BF09FF80028F4D168468088608098
:1026F0002846002630300099FFF782FC02200AF0BD
:1027000039F93046E7E7000021240000448A002020
:10271000F8B5944606460B46032405202E4A2F4D55
:10272000002178274F43EF5B974201D1032C11D052
:10273000B74210D10C462A498B4215D17820444328
:10274000601910226146801CFFF760FC002800D051
:102750000620F8BD0C46491C0329E2D32049491D37
:102760008B4201D10420F8BD032CFCD01C488342CD
:102770001BD1A0B200236246314609F0BDFFA0B2D2
:10278000002109F0CFFF78204443641920467030BF
:102790000521FFF74DFC204674300521FFF748FC6A
:1027A00010490889401C088113E0A0B278214843F1
:1027B00040196030407B002801D00B20F8BDA0B24A
:1027C00001236246314609F097FFA0B2012109F0CA
:1027D000A9FF0020F8BD0000FFFF0000F48C0020DE
:1027E00040800000F618002070B53421484311499C
:1027F0000F4D44182820005D012813D100223034E9
:1028000020460A21FFF71AFC0546401C05D001218D
:1028100028460AF045F96A1CF2E720460A21FFF72C
:1028200007FC002502200AF0A5F8284670BD00002C
:1028300021240000448A002070B5CA1C154694B2B9
:102840007822074E504380197430FFF7FDFB782142
:102850004C430448A1194867A8B200F03BF870BD8A
:10286000F48C0020FFFF0000F8B50C460021C9439E
:102870000091342148431649144E45182820405DE4
:10288000012820D12078012808D06A460121A01C07
:102890000AF046FF002808D00020F8BD6B46A21CB5
:1028A0000121201D0BF034F8F4E7012100980AF013
:1028B000F7F8060007D1284630300099FFF7C4FB2F
:1028C00002200AF057F83046F8BD0000212400002D
:1028D000448A002070B5104B0C261A89012A19D998
:1028E000782148430D490E4C0D5AA54212D0521E74
:1028F0000C5200261A8145183246703528460521AB
:10290000FFF79CFB0446401C04D020460AF0FCF86C
:10291000621CF3E7304670BDF6180020F48C0020EE
:10292000FFFF000078235843034B0022C018406F7C
:102930000880104670470000F48C002070B50446F3
:102940000848094E094B0022782555435D5BB54286
:1029500004D0A54202D10A80002070BD521C032A77
:10296000F2D370BD21240000FFFF0000F48C002092
:1029700070B5114C002911D0002A0FD028235843DC
:102980000E4B0F4DC018438CAB4205D0831C20303A
:102990000B60007910700024204670BD064909A024
:1029A0000F390C46FFF756FB14A0FFF753FB1448F2
:1029B0000020C046F0E7000022240000B490002070
:1029C000FFFF00005B434D5D204E554C4C20706175
:1029D00072616D6574657220696E2067657420414F
:1029E00070704B65792E2052657475726E696E67D2
:1029F000203078253034580A000000000D0A00000D
:102A00006C170020FFB5944602461348134F144D2F
:102A100081B000242346282673435E19768CBE427B
:102A200015D08E4213D1EB5A934210D12820604327
:102A3000411910226046891CFFF7E8FA002802D0ED
:102A4000062005B0F0BD049804800020F9E7641C5E
:102A5000052CDFD3F5E7000021240000FFFF000074
:102A6000B4900020F0B596467822154B42438C4630
:102A70009A5A144F11490024BA421BD0002328222D
:102A80001E46114D56437219528CBA420CD0AD5BA2
:102A9000854209D165462D88A54208D966001546AC
:102AA0007246641C9553A4B25B1C052BE7D3002C23
:102AB00000D00021604604800846F0BD21240000BB
:102AC000F48C0020FFFF0000B4900020002804D008
:102AD00003490978017000207047024870470000E0
:102AE000F618002013240000002905D0074A528957
:102AF000904204D3064870470548401E7047142290
:102B00005043044A8018086000207047F6180020DF
:102B1000122400007C910020024989780170002075
:102B200070470000648C0020024A01465278002061
:102B30000A707047F618002001228A4005490346B2
:102B4000497800200A4201D0012100E000211970DB
:102B500070470000F6180020024A014692780020D3
:102B60000A707047F618002010B500280CD0074AEC
:102B700014791368E407E40F1B1B0360002901D0DC
:102B800010790870002010BD014810BD588C00203D
:102B90001324000000290BD0064AC0071268C00F9A
:102BA000D307DB0F834200D0521E00200A6070471B
:102BB00001487047588C00201324000030B578235A
:102BC0005843074B074D1C5A044AAC4204D0C01866
:102BD0006030407B08700022104630BD2124000088
:102BE000F48C0020FFFF0000F7B50F463421484366
:102BF0001349124E45182820405D0024012819D1A0
:102C000000222C3528460521FFF718FA411C0ED06A
:102C10003988A1420BD928210A4A414389184A8C94
:102C200063000299641CCA52A4B2421CEAE7002C59
:102C300000D000263C803046FEBD0000212400006C
:102C4000448A0020B490002070B50C46014634221E
:102C50005143154A13488E1835462035297A0129E3
:102C600007D12879012805D01C212046FFF7F8F963
:102C7000002070BDA21C0021B0690AF0D1F8B08B11
:102C80002821484309494018408CA082B07FA07594
:102C9000F07FE07528782076A8786076E878A076CE
:102CA000E6E7000021240000448A0020B4900020C0
:102CB000F7B5342148431449124F46182820805D47
:102CC000002501281AD10022303630460A21FFF7AC
:102CD000B5F90446401C0ED001980088A8420AD9D4
:102CE000029869000A18012120460AF099F86D1C23
:102CF000ADB2621CE9E7002D00D0002701980580E5
:102D00003846FEBD21240000448A002070B51546D7
:102D100078220A4C5043225A094E074BB24208D03F
:102D200000190901411810222846891CFFF774F97F
:102D30000023184670BD000021240000F48C002000
:102D4000FFFF0000F0B504460C4800220C4D13466E
:102D500078265E43AE5B0B4FBE4206D02788974273
:102D600006D95700521CCE5392B25B1C032BEFD3F3
:102D7000002A00D000202280F0BD000021240000A5
:102D8000F48C0020FFFF000038B50C4600222270B2
:102D9000782250430C4A0D4D135A0A49AB420ED0CB
:102DA00080186030007B207001216846FFF7C4FE68
:102DB00068460078012801D00220207000210846D2
:102DC00038BD000021240000F48C0020FFFF00002B
:102DD000002804D003490988018000207047024878
:102DE00070470000648C00201324000010B50B46CF
:102DF000082801D3084810BD002B0AD07821484389
:102E000006491022411818464431FFF705F9002001
:102E100010BD01480F3810BD22240000F48C0020A2
:102E200010B50B46082801D3084810BD002B0AD066
:102E30007821484306491022411818463231FFF7DD
:102E4000EBF8002010BD01480F3810BD222400000F
:102E5000F48C002010B50B46082801D30B4810BD98
:102E6000002B0ED07821484309490A4C0A5AA24245
:102E70000AD04118102218465C31FFF7CDF8002027
:102E800010BD02480F3810BD042010BD22240000E0
:102E9000F48C0020FFFF000010B50B46082801D37A
:102EA0000B4810BD002B0ED07821484309490A4C2D
:102EB0000A5AA2420AD04118082218465431FFF794
:102EC000ABF8002010BD02480F3810BD042010BD23
:102ED00022240000F48C0020FFFF000010B5082819
:102EE00006D278225043094A094C135AA34201D111
:102EF000084810BD002905D080184030807808703F
:102F0000002010BD03480F3810BD0000F48C0020D5
:102F1000FFFF00002224000010B50B46082801D353
:102F2000084810BD002B0AD07821484306491022DA
:102F3000411818462231FFF76FF8002010BD0148F4
:102F40000F3810BD22240000F48C002010B502467A
:102F5000054B54001A5D0A70E3185B780020DB0013
:102F60001A430A7010BD000006190020F8B5184C6D
:102F700015460B00064615D0002D13D018881549AC
:102F8000884221D100202821134A414389180A464A
:102F900020321779B74208D1002418801022284621
:102FA000891C0DE00A4C0E3C10E09779002F0AD0E6
:102FB0005279B24207D118800024102228461231DB
:102FC000FFF72AF802E0401C0528DCD32046F8BDB4
:102FD00021240000FFFF0000B4900020FFB593B053
:102FE0000F461699002008701398374E002835D0E8
:102FF000002F33D01598002830D03D8833488542C3
:1030000027D100257820324968434418214654319D
:1030100008221398FEF7FAFF002822D020466030DD
:103020001190407B002813D02AA000682AA110909C
:1030300003C90991089012340EAA102120460AF003
:103040002DFD08220EA91398FEF7E0FF002818D0E6
:103050006D1C032DD6D3304617B0F0BD1A4E0E3E70
:10306000F9E73D8021460026443110221598FEF7ED
:10307000D3FF6034607B0228EDD3169901200870DD
:10308000E9E71198407B022802D2169901200870C6
:103090000020049005900690079004AA042110A82F
:1030A0000AF05CFD0AA906200191009008AB04AA71
:1030B000102120460AF068FC3D80002610220AA953
:1030C0001598FEF7A9FFC6E721240000FFFF0000C6
:1030D000F48C00206E6B626B696431323801000041
:1030E000FFB5694F8FB00E0024D01198002821D071
:1030F000129800281ED034886448844249D10024A4
:1031000078202146414362480D1828464030827895
:103110000F998A4214D15F48807802280DD0002789
:1031200034802946223110221198FEF775FF294676
:10313000323147E0544F0E3FA3E0534F7F1DEFE77E
:103140006D21495D002923D0C0780F9988421FD195
:1031500000200A90284601AD123001230AAA10214E
:1031600000950AF02BFC4B48807802280DD00027F0
:1031700034801022691C1298FEF74EFF05A9102218
:1031800001311198FEF748FF7BE03F4F7F1DEFE7CD
:10319000641C032CB4D372E078203D496043451889
:1031A0004220425D0F9882420FD134807820444300
:1031B000084621180027102222311198FEF72CFF13
:1031C0002946323110221298DCE7304A686F90426B
:1031D00054D078225043401800906030407B002843
:1031E0004CD0E01E2B4D81B20DAAA87802F07CF9DC
:1031F0000098012108AA11722549AA7890390988F6
:103200001230022A2FD06B46DA8E08AB9A72120A5D
:103210005A721973090AD9726A46118F08AA9173F2
:10322000090A51736A46518F08AA1174090AD173A9
:1032300001A9009109230AAA10210AF0BFFB6A46DE
:1032400011790F98814219D101A9102201311298E8
:10325000FEF7E2FE05A9102201311198FEF7DCFE0F
:10326000002734800DE008AA9172090A51726A465B
:10327000D18E08AA1173090AD172CDE7641C082CFB
:103280008AD3384613B0F0BD21240000FFFF0000B0
:10329000F48C0020F6180020FEB50024364D0128DD
:1032A00030D1364A00203421414389188C61CC61E9
:1032B0000C624C62401CCC6280B20C630A28F2D3D0
:1032C0000F212C8189012E48FEF7D0FE09F0CCF9A0
:1032D000C8212C48FEF7C4FE294F1821903FBE7824
:1032E0003846FEF7BDFE3846BE7064211830FEF742
:1032F000B7FE384614217C30FEF7B2FE1E4810306F
:10330000048044806C81A888A8811E480521890218
:10331000C830FEF7A5FE1A489C380460047184602A
:10332000002001F07BFE01F061FE01F06BFE01F078
:10333000E7FF0121022000F043FD0121032000F0FE
:103340003FFD0121002000F03BFD0021084600F078
:1033500037FD684601F0FEFC01990098884204D0D0
:10336000C81DFF30FA3001900090684601F0C4FD9E
:103370002046EC81FEBD0000F6180020448A0020A3
:10338000F48C0020B4900020002802D0811E7D29FA
:1033900003D8034A0021107000E002490846704734
:1033A000F6180020FFFF000070B501228A400F4987
:1033B00005464878134600240340012D0FD0002B0A
:1033C00000D0012390434870002B06D0D0B202F009
:1033D00091FB0120400209F0CDFA204670BD002B80
:1033E00002D000231043EEE70123FBE7F61800208C
:1033F00070B50026064D0446022802D0A87802289F
:1034000002D1082002F076FBAC70304670BD00009F
:10341000F618002010B5044A10601171042009F05C
:10342000A9FA002010BD0000588C002070B50D4690
:1034300003467821484302460C490D488E5A0A4CEF
:1034400086420FD0511860314A7B00242978002A27
:1034500004D0184609F066F9024602E0032900D0BC
:1034600004462A70204670BD21240000F48C002000
:10347000FFFF0000FEB50C4636490291E27E364958
:10348000012A01D0A58A16E0344B002528266E4378
:10349000F618768C8E4202D0A78AB74202D06D1CF5
:1034A000052DF3D3052D02D0012A04D101E003201C
:1034B000FEBD052D4CD03421294A41438F183E468C
:1034C0002036317A012943D1217801AB012907D077
:1034D0000022A11C0AF042F900280BD00520FEBDF5
:1034E0006A460021201D0AF09DF90028F6D16846A1
:1034F000008860803079012809D1B8690199884233
:1035000002D16188002902D1002109F0C9FA01988D
:10351000B861608869460880002803D11C212046D4
:10352000FEF79EFDBD83A07DB877E07DF877207E15
:103530003070607EB070A07EF07068460088002811
:1035400000D00120307100200290022009F012FA10
:103550000298FEBD21240000FFFF0000B49000206F
:10356000448A00200F2901D904487047342250436F
:10357000034A80182030417002487047112400002F
:10358000448A0020FFFF0000F8B50D46044678216C
:103590000D4E4C43315B0D4A0A48914211D0012136
:1035A0006846FFF7C9FA68460078012801D0022072
:1035B0002870A019297860300173042009F0DAF925
:1035C0000020F8BD21240000F48C0020FFFF000043
:1035D000002805D0010403D4034A0021108000E034
:1035E0000121084670470000648C00207CB5044629
:1035F00009F03AF809F012F814212048FEF730FDDE
:103600001E4864216438FEF72BFD1D48002101800F
:10361000418008F063FC208BFFF7DAFFA07C4008B4
:10362000C00705D021250021284601F06DFC00E0EF
:10363000002529466069FFF7EDFE208A22461149E0
:10364000FFF766F80546A07CC00711D00D49208A17
:103650002246491DFFF75CF8208A01A9FFF76EF9A1
:10366000054602216846017001468088FFF7DEFEAC
:10367000054809F07FF928467CBD0000E08C002059
:103680000619002040800000FF0F000010B54B0716
:10369000420006485B0F8354C9081018417001208E
:1036A0000024400209F066F9204610BD06190020EA
:1036B000FFB50B4603252A4E2A4981B01746002440
:1036C000282262435218528CB2420CD09A420AD13C
:1036D000282262438A5A824201D011253CE000250B
:1036E000052C06D138E0641C052CE9D334D0002D1C
:1036F00032D1782358431C4B0122D203C61897427B
:1037000008D1204609F000FA304670302146FEF715
:103710009BFC1BE028204443641827462037B879D7
:10372000002803D16036707B012801D00B250DE005
:103730002046123010220499FEF76EFC22462532F4
:10374000102104980AF0DCF90120B871102009F06A
:1037500011F9022009F00EF9284605B0F0BD00006D
:10376000FFFF0000B4900020F48C002000210170C5
:1037700008467047F1B584B00498002858D0808876
:10378000002855D004980068002851D00A200090E5
:103790002820FEF771FC06004DD004980B25046824
:1037A000002020704B48017861700188090AA170DF
:1037B0008178E1704188090A2171017961718188FC
:1037C000090AA1718179E171C188090A2172017A1E
:1037D00061720089000AA07200273846062148431A
:1037E0003D490290401801900079002867D00A20D6
:1037F00000906A463146384609F012F800980028D1
:103800005DD035480299415C61550299405A611971
:10381000000A48700199AD1CA8B289782154019919
:10382000401C80B2C9782154401C85B2002016E0AB
:103830002A4805B0F0BD29480E38FAE781007158D2
:1038400034225143264A8B181B79002B06D1515A3A
:103850006155090A6219AD1C5170ADB2401C009946
:103860008842EBD3002027E08100725834235A436A
:103870001B4B9446D2181279012A1CD162469A5CDD
:103880006255725834235A43154B9A5A6319120AD7
:103890005A709C46725834235A43114B9A586346C7
:1038A000120C9A707158342251430D4A5158090E26
:1038B0002D1DD970ADB2401C00998842D4D37F1C15
:1038C000052F8AD33046FEF7DDFB04988580002063
:1038D000AFE700004C8C0020248A00201324000055
:1038E000448A0020064B1A889B78904206D3D3184E
:1038F000834203D9801A0870002070470120704766
:10390000648C0020FFB56A460646177A0020104AEC
:103910009C46014634230D465D43AC1828231B5DAD
:10392000012B0CD1237AB34209D12379BB4206D1B2
:103930005359019CA34202D16246118002E0491C06
:103940000A29E7D30A2900D1022004B0F0BD000003
:10395000448A002010B5008834225043064A80185B
:103960002422125C012A01D0044810BD0A46806955
:10397000002109F055FA10BD448A002027240000D8
:1039800030B50C4A904212D00B49551E931ED41EDE
:103990004978A84202D1C80709D109E0984201D16B
:1039A000480702E0A04203D18807002800DA00227D
:1039B000104630BDFFFF0000F618002030B50D4B5B
:1039C000002814D0010412D40B4A00218D00545B4E
:1039D000002C08D0AD18AD78A04204D364198442FD
:1039E00001D9002304E0491C0629EFD300E001239C
:1039F000184630BD21240000648C002001B581B040
:103A00006A46012101A809F08BFE002804D06A460D
:103A1000012101A809F05AFF0CBD0000FEB52A4C97
:103A2000012261780020FEF733FB284E050001D506
:103A30003046FEBD02236A4661780020FEF72EFB69
:103A4000012201A96078FEF72FFB684601881F4814
:103A5000814204D161780020FEF72CFB32E0002681
:103A6000012D06D01A4811210068090647180025C3
:103A700015E01848F7E7142029464143124808305A
:103A80000C180838417800206268FEF719FB60685E
:103A9000A268C1193046FEF719FB06466D1C684640
:103AA00000790009001F0007000FA842E3D806486C
:103AB00041780020FEF7FEFA68460088B04201D047
:103AC0000248FEBD0020FEBD0C190020FFFF0000D3
:103AD000841B0020801B002010B5024808F04AFF1C
:103AE00010BD0000FF0F0000014908707047000082
:103AF0000C190020FFB583B00F461C46164602A9DC
:103B00000C9D0398FFF726FF002808D16846019511
:103B10000094028933463946039800F003F807B051
:103B2000F0BD0000F0B59446134A1C461388028885
:103B300034204243114885B01218107A0A9E181892
:103B4000938B927F0B9D80B2012A03D0052B03D368
:103B5000002206E0032204E01A4628277A43084F91
:103B6000BA5A084F3F78009701AF52C70495614693
:103B7000FEF7B2FA05B0F0BD648C0020448A002044
:103B8000B4900020F618002038B514460D4668465B
:103B900008F0E8FB00280BD169462B88097806223B
:103BA000044D4A43AB52217003498A78521C8A70F3
:103BB00038BD0000248A0020648C0020F8B50C4633
:103BC00015466946204608F017FF010005D0154844
:103BD000814200D100210846F8BD684602883420A1
:103BE000114E50438019E368C360A3694361A38AFF
:103BF0000382237A037248CC48C0083C23790B48DF
:103C0000002B237A07D0062463431B18D878401C66
:103C1000D8702A80DFE7062463431B189878401C7D
:103C20009870F6E723240000448A0020248A0020AC
:103C3000F0B585B086461C4615468C460F980A9FFF
:103C40000C9E0D9B0E9A0B99012802D0FF290DD0D6
:103C50000EE00393049201910097029623462A46B0
:103C600061467046FEF73EFA05B0F0BD07480178A0
:103C70000120029303920091049001963B46224654
:103C800029466046FEF728FAEEE70000F618002005
:103C9000F8B50B46342148431649154F45182E46B2
:103CA0002036307A012821D1134A144800242821D3
:103CB00061430918498C0327914214D0994212D1CB
:103CC00028462C302146FEF7BFF93079012805D16E
:103CD000A88BA1B2884201D10020307100270220B8
:103CE00008F048FE02E0641C052CE0D33846F8BD1D
:103CF00021240000448A0020FFFF0000B49000202F
:103D0000F7B52B4A82B0074600294ED02948886073
:103D1000FF206B461870002627483546012F02D039
:103D2000032F42D105E0406800283ED1224C187094
:103D30001AE00123A0245C4324186468002C04D0FA
:103D40005B1CDBB2022BF5D32FE0A0245C432418CC
:103D50006846037008680068038820468030438303
:103D60000B681B689B780377002C1ED0142220461A
:103D7000FEF7BEF92068002801D085880668BC00DF
:103D80000E482B460759324601216846B8470B4872
:103D90002B4620184468324601216846A0476946F0
:103DA0000A7804990A7005B0F0BD1046FBE70000E0
:103DB000FFFF000011B1FF1F886B0020C86C0020BE
:103DC0001FB50B4A5468002C0FD000226B4600012F
:103DD0001A700843587001921A81102303926A46A0
:103DE0002B210448A04704B010BD0348FBE70000A6
:103DF000886B00208818002014200000FFB51B4F9E
:103E00008FB078681D46164600282DD000206C46DD
:103E100020701022601CFEF7FFF86A469674300A84
:103E200050741322002D0FD0286800280CD0A988C8
:103E3000002909D00AAA09F091FE04A804220AA9BF
:103E40000330FEF7E9F817221021684601760F9932
:103E5000417607940284099510237C6806AA2B21D9
:103E60000348A04713B0F0BD0248FBE7886B002071
:103E7000881800201420000070B50D46154988B040
:103E80004E681446002E22D0102269460A720001A4
:103E9000487203950C8200201346059002AA2B213C
:103EA0000D48B0470120694608706846069584832E
:103EB00006AA432100F094F868460078401CC1B27D
:103EC000684601700229F0D3002008B070BD034895
:103ED000FBE70000886B00208818002014200000F9
:103EE0000148007870470000891800201FB50B4A70
:103EF0005468002C0FD00A016946521C0A704870A1
:103F0000002001900881102303906A462B21044869
:103F1000A04704B010BD0348FBE70000886B0020F9
:103F20008818002014200000052806D2002904D09B
:103F3000034A80001150002070470248704700007B
:103F4000C86C002011200000002901D0012801D9EF
:103F500003487047034A800011500020704700005A
:103F600011200000DC6C0020F8B50D00044608D0DC
:103F700028781749022828D2032C04D0012C05D018
:103F800009E01448F8BD002802D004E0002802D05F
:103F90000F48401CF8BDA02250430F4A80184268C9
:103FA000002A12D0A021FEF761F8A4000B4F0023D5
:103FB0003E591A4619462846B047E019002344687E
:103FC0001A4619462846A047F8BD0846F8BD000025
:103FD00011200000FFFF0000886B0020C86C00204B
:103FE000F7B58CB00C98002842D0002A40D0106859
:103FF00003900C9896880078A02250433A4A84187F
:1040000065683A48002D34D08A098906890E0192E4
:10401000012930D0022930D0032901D0042928D128
:1040200000200B90204640300A9016300790401E2A
:10403000254680350590FEF761F8C01E82B26A837E
:10404000771C0B98BA4227D200281CD001998020F7
:1040500008430A994875288B8018401E288381B22E
:104060000398521E09180798FDF7D6FF6B8B26E0C0
:104070001F480FB0F0BD2A2100E029213346039AE2
:104080000C98A847F5E701200B90019940200843C0
:104090000A9948750020E1E700281DD00199C02049
:1040A00008430A994875288B8018401E2883298B5D
:1040B0000398324609180798FDF7AEFFBBB2F01A15
:1040C000401C86B26768059A01990C98B847002889
:1040D000CFD1002EAFD1CCE701200B900A9A0198E6
:1040E000002150752983E2E7886B0020FFFF000064
:1040F0001120000008B5002069460870A02148433F
:1041000004494018C168002901D06846884700204A
:1041100008BD0000886B0020F0B5134F0646786894
:104120008BB01446002803D0022E04D0012203E0F5
:104130000E480BB0F0BD00226D462A70681C224666
:10414000FDF76AFF1021684601753101491C417570
:10415000641C069584830020089010237C6805AABF
:104160002B210348A047E4E7886B002014200000BF
:104170008818002008B5002269460A70A0214A4329
:10418000044951180A69002A02D00146684690473E
:10419000002008BD886B0020F8B5002416460D46A7
:1041A00005280FD208490001085C6946FDF7ACFFFD
:1041B000040007D10098854201D2401B009031468F
:1041C00000F004F82046F8BD386B002038B50446EE
:1041D00025480D46844206D864212046FDF79AFF03
:1041E0008006800E1FE02148844208D87D21C90046
:1041F0002046FDF78FFF8006800E403013E01C48FC
:10420000844207D81B492046FDF784FF8006800EB4
:10421000803008E01848844208D818492046FDF745
:1042200079FFC02108432870002038BD5C2114A00C
:10423000FDF776FF002805D05C2111A0FDF770FF87
:10424000401C00E00EA077211E4D0346009116A2EF
:1042500029460120FDF76AFF23461BA229460120BB
:10426000FDF764FF1F4838BD3818000030F2000029
:10427000E07509001027000080A03702C027090060
:104280002E2E2F6D6573682F707269766174652F9D
:10429000636F72652F636F6D6D6F6E2F4D535F751A
:1042A00074696C732E6300000A5B2A2A20455252FF
:1042B000202A2A5D3A5B25735D3A5B25645D3A20CE
:1042C000000000000100004056616C7565203078E8
:1042D000253038583A206F7574206F662072616EF1
:1042E00067650A00FFFF00007CB5024600241B48FA
:1042F0000194019B1D012D186D78002D24D05B1CAD
:104300000193052BF5D3019905291FD0090101233C
:104310000818437091788170D378C37053684360F4
:1043200093688360D368C3609278002A10D0042217
:1043300000928A0089180122D207891801AB084A25
:10434000FDF7FAFE044607E00B80DCE705487CBD7C
:10435000042101A808F0D4FF20467CBD386B002062
:1043600001D30311FFFF000010B588B004460A4ACC
:10437000FF20107000206B46009018711C72074AD5
:104380000392074A069204902F229A820A466946AF
:10439000FFF714FC08B010BD341A002019A0031157
:1043A000F8200411002806D004498A780270C978E0
:1043B000417000207047024870470000C81A002072
:1043C0001124000030B51546024687B001200003D5
:1043D0000C4600900020694608710A720849039152
:1043E0000849049108490691032269468A822246B7
:1043F000FFF7E4FB05494D6022880A8007B030BD15
:1044000021A903118DAA0311F4220411F01A00202E
:1044100070B50C460978224D8EB000290BD05C2176
:1044200020A0FDF77DFE002825D05C211DA0FDF712
:1044300077FE401C20E061686B460A781A750B799C
:104440000122002B05D04B786A4653750979917586
:104450000322224B002A20D005A9FF2401940293B5
:104460000492039101890091C38842888188FDF7F5
:1044700039FE0EB070BD0BA0A421204E0346009162
:1044800017A231460120FDF751FE23781CA23146C8
:104490000120FDF74BFE2846EBE70021DDE7000099
:1044A000FFFF00002E2E2F6D6573682F70726976E6
:1044B0006174652F6D6F64656C732F67656E6572CF
:1044C00069632F67656E657269635F6F6E6F66669D
:1044D0005F7365727665722E6300000004820000CF
:1044E0000A5B2A2A20455252202A2A5D3A5B25730C
:1044F0005D3A5B25645D3A20000000000008004042
:10450000496E76616C6964205374617465205479D6
:1045100070653A203078253032580A00FFB5344FA4
:10452000344D387889B00E4600280FD1B021284686
:10453000FDF79CFD0020FF215822424352194032D2
:10454000401C51710228F7D30120387000245820F4
:1045500060434019C06C002802D0641C022CF6D3C2
:10456000022C1FD3244C5C2124A0FDF7D9FD002888
:1045700005D05C2121A0FDF7D3FD401C00E01FA069
:104580002A49324D0346009129A229460120FDF710
:10459000CDFD23462EA229460120FDF7C7FD20466A
:1045A0000DB0F0BD02200190002069460872099A02
:1045B0000A733649049136490591364907910B2211
:1045C00069460A83324601A9FFF7F8FA31887980F3
:1045D00058214C4361190A463388403253820B9B61
:1045E000D3800C9A8A64129ACA64139A4A65D7E7F0
:1045F0003C1A00205CA90020138000002E2E2F6D95
:104600006573682F707269766174652F6D6F64656C
:104610006C732F6865616C74682F6865616C746871
:104620005F7365727665722E6300000022020000DF
:104630000A5B2A2A20455252202A2A5D3A5B2573BA
:104640005D3A5B25645D3A200000000000080040F0
:104650005B4845414C54485D204E6F20667265654D
:10466000204865616C7468205365727665722065B8
:104670006E746974792E2052657475726E696E67F6
:104680003A203078253034580A00000041AC03113C
:1046900031B00311B4210411F8B5284D297800294F
:1046A0002FD100282ED001460822A81CFDF7B4FC0B
:1046B000FDF748FD08F0D2F908F05EFE08F010FEA4
:1046C00009F084FC08F0C8F808F04AFA08F0B8FECF
:1046D00009F01AFE08F0D2F9194EB06A0402240A51
:1046E000FDF736FDB06A0002000A011B15A0FDF7B8
:1046F000B1FC22A0FDF7AEFC21480020C0460120FD
:104700002870F8BD5C211FA0FDF70AFD002805D028
:104710005C211CA0FDF704FD401C00E019A0512104
:10472000294C0346009121A221460120FDF7FEFC01
:1047300026A221460120FDF7F9FCF8BD7C180020D7
:1047400000F00040636F6E73756D652074696D6570
:10475000206F662066756E6374696F6E2063727970
:104760005F656364685F696E69743A2025642052EE
:104770005443207469636B0D0A0000000D0A0000A9
:104780006C1700202E2E2F6D6573682F707269765E
:104790006174652F636F72652F636F6D6D6F6E2F20
:1047A0004D535F636F6D6D6F6E2E63000A5B2A2A37
:1047B00020455252202A2A5D3A5B25735D3A5B25DB
:1047C000645D3A20000000000100004044796E6101
:1047D0006D696320436F6E66696775726174696F96
:1047E0006E2063616E206E6F74206265204E554CA2
:1047F0004C2E2052657475726E696E670A00000057
:10480000FFB5054687B0194800900024684604713A
:1048100005721948164E174F069006210497039605
:104820006846818269462046089AFFF7C7F90F4813
:104830000421401C00906846047105720E480497DC
:104840001830069003966846818269462046099A88
:10485000FFF7B4F909490A9A4A60089A12880A804F
:10486000099A12884A800BB0F0BD000007130000BF
:1048700095B4031135B703118C230411401B00209C
:1048800070B504460878584E8EB00D462F284DD08E
:1048900030282DD0312869D034280BD05C2153A08A
:1048A000FDF73EFC00287DD05C2150A0FDF738FCD0
:1048B000401C84E048686946027A0A7502784A75A5
:1048C00001880A0A69468A758278CA7541880A0A87
:1048D00069460A7602794A7681880A0A69468A76A2
:1048E0008279CA76C088000A087709214B4853E0CC
:1048F0004868694682780A7541880A0A69464A7595
:1049000082798A75C1880A0A6946CA75827A0A76E6
:1049100041890A0A69464A76407B0621002802D06E
:104920006946887607213D48001F1CE048686946B3
:1049300002780A7501880A0A69464A7502798A75F9
:1049400081880A0A6946CA75027A0A7601890A0AC2
:1049500069464A76407B0621002802D0694688765F
:1049600007212E48801F00293BD015E04868694682
:1049700002780A7501880A0A69464A7582788A753A
:1049800041880A0A6946CA7502790A768088000A4F
:10499000487622480621801E05AAFF230193039230
:1049A000049100E00AE0029020890090E388628888
:1049B000A1882046FDF796FB0EB070BD0BA0FF212D
:1049C00002311E4C0346009115A221460120FDF73D
:1049D000ADFB2B781AA221460120FDF7A7FB30463C
:1049E000EAE70022D9E70000FFFF00002E2E2F6D1E
:1049F0006573682F707269766174652F6D6F646579
:104A00006C732F6C696768742F6C696768745F6872
:104A1000736C5F7365727665722E63007E82000030
:104A20000A5B2A2A20455252202A2A5D3A5B2573C6
:104A30005D3A5B25645D3A200000000000080040FC
:104A4000496E76616C696420537461746520547991
:104A500070653A203078253032580A0030B5154656
:104A6000024687B0132000020C46009000206946E1
:104A700008710A720849039108490491084906918E
:104A8000092269468A822246FFF798F805494D6057
:104A900022880A8007B030BD3DB7031161B8031109
:104AA000E4230411501B002070B506460C464868EC
:104AB00009788EB02539464D0B00FDF74FFB0504F4
:104AC0001A4F333D680001786A4611750188090A5A
:104AD000517542790221002A09D0827869468A7587
:104AE00041880A0A6946CA7540790876052139481D
:104AF00015E0017A6A4611750189090A5175427BF0
:104B00000221002A09D0827A69468A7541890A0AF7
:104B10006946CA75407B087605212E48001F00298A
:104B200053D024E0017D6A461175808A0221000A73
:104B300050752848001D1AE0827E69460A75827DFC
:104B40004A75C18A0A0A69468A75027ECA75008B4F
:104B5000000A08761F480521801D08E0817C6A460E
:104B60001175408A0221000A50751A48801C05AA56
:104B7000FF23019303920491029030890090F388FF
:104B80007288B1883046FDF7ADFA0EB070BD5C2179
:104B900011A0FDF7C5FA002805D05C210EA0FDF795
:104BA000BFFA401C00E00CA0DD21204E034600911E
:104BB00017A231460120FDF7B9FA23781CA231462D
:104BC0000120FDF7B3FA2846DFE70022D0E7000016
:104BD000FFFF0000528200002E2E2F6D6573682F9C
:104BE000707269766174652F6D6F64656C732F6C7C
:104BF000696768742F6C696768745F6C696768744B
:104C00006E6573735F7365727665722E6300000064
:104C10000A5B2A2A20455252202A2A5D3A5B2573D4
:104C20005D3A5B25645D3A2000000000000800400A
:104C3000496E76616C69642053746174652054799F
:104C400070653A203078253032580A0070B5064D2C
:104C5000002430206043401907F0C0F9641C102C78
:104C6000F7D3002070BD0000446F002001490860A8
:104C7000002070478C18002010B50D4C2168016091
:104C80002168606881420DD3FF30FF3002300F2170
:104C900009056060884201D300F0F2F8FF2001307E
:104CA00007F068FE2068401C2060002010BD000056
:104CB000C418002030B58FB0054601216846017444
:104CC00004AC02A90AA8FDF74FFF6846007AC107A5
:104CD000C90F6846017203A92846FDF76FFF6846B1
:104CE000007B02282BD000216A46107A400008433E
:104CF0005074A11C2846FEF7CFF86A46117A0A982C
:104D000041180A915177080A1077080CD076080EDE
:104D100090760BA92846FEF769F807A8082102300B
:104D2000019100900BAB0D22611C0020FDF71CFAD5
:104D3000162204A90120FFF79FF80FB030BD012112
:104D4000D2E70000002803D0800B022800D2012007
:104D500070470000024A06CA06C0002070470000E3
:104D6000C418002010B5022006F0ECFE00280DD07B
:104D700009490120087109A0FDF76CF90DA0FDF7A4
:104D800069F90D480020C0460C4810BD0C480021B0
:104D900001604160084610BDD018002053415220E8
:104DA0006361636865206E6F7420656D7074790A45
:104DB000000000000D0A00006C170020FFFF00003B
:104DC000C4180020F8B52C4C0546206800260F4674
:104DD000A84226D801462A31A94222D32179490680
:104DE0008A0F012A01D1002F01D0A84219D0880FC3
:104DF00003D000F0FBF80020A060217920464A068D
:104E0000920F1E4C012A01D1002F0BD0012F0BD085
:104E10000026FFF7A7FF002829D0E5606671002073
:104E2000A071F8BD402706E0CA0900D0012621275D
:104E3000002E08D0F5D0FFF795FF002812D0E560CE
:104E400067710120ECE70068401CA84201D1C80747
:104E500008D0FFF787FF002804D00021384600F073
:104E600053F8F8BD39462846FEF7D4FAF5E731463F
:104E70002846FEF7CFFAF8BD588C0020D018002045
:104E80003EB501A96846FDF76FFE684600796121CD
:104E9000084220D100061ED40FA0FDF7DBF811A0B8
:104EA000FDF7D8F810480020C046042102A8FDF7FD
:104EB00043FE0098A124401C21460090FEF7AAFA68
:104EC0000021204600F020F86846007A012802D030
:104ED000002000F075F83EBD49562075706461747D
:104EE000650A00000D0A00006C17002001490860E7
:104EF00000207047C0180020024905C805C10020E5
:104F000070470000C418002038B502461A4800292E
:104F100001D0816809E0110601D50C2104E0510699
:104F2000890F01290FD00621816014A0FDF792F8A6
:104F300018A0FDF78FF818480020C04617484078A1
:104F4000FF2802D016E01221EEE700200346009071
:104F50001248E121124AC901401CFDF7EDF8040096
:104F600008D010A0FDF776F80AA0FDF773F80A48FC
:104F70000020C046204638BD588C002069765F6509
:104F800078706972655F74696D653A30782530387C
:104F9000580A00000D0A00006C170020D0180020ED
:104FA00075CF03115B434D5D2053746172742054BF
:104FB000696D6572204661696C65640A00000000D5
:104FC00001B5074882B08078FF2808D10220009000
:104FD000034802AB034A0449801CFDF7ADF80EBD3F
:104FE000D018002069D903111027008010B504489B
:104FF0004078FF2803D00248401CFDF7BBF810BDE5
:10500000D018002010B50448C078FF2803D002480B
:10501000C01CFDF7AFF810BDD018002010B5044833
:105020008078FF2803D00248801CFDF7A3F810BD4C
:10503000D0180020FFB5434881B00F46002B11D097
:10504000002F0FD00199012901D002290AD13E4831
:1050500000250068B22807D0B12805D0B02803D0B9
:105060003848401E05B0F0BD184609F077FD040031
:1050700020D036482646FF36007861363074022844
:105080001BD0204610223249B030FCF7C5FF224623
:10509000FF320020813290602A490198091D2D4B72
:1050A000012811D0022828D02B4D204609F01AFFE4
:1050B0002846D7E72348401CD4E78ECF2046B0309F
:1050C0008EC003983076E2E71878FF2837D00220A8
:1050D00093607074307C0228EAD12046FF300421AE
:1050E0007530FDF74DF820460AF04AFA0500DCD18C
:1050F000B320FF340134E066DAE701201F5CFF2FA4
:1051000002D01B18936003E0401CC0B20228F5D304
:10511000022814D0042070740120FF21B0746D3176
:105120000851307C0228C3D100200346024600907B
:105130000121204609F0EAFE0500B6D1B8E70D4688
:10514000B3E7000012300000141A0020181A0020E3
:105150004CA90020191A0020FFFF000010B50029FB
:1051600008D0054A1060054801600548FDF702F8BF
:10517000002010BD034810BD0C1A0020101A00209A
:10518000041A00201230000038B515460C460028DD
:105190000DD0002C0BD009F09BFD002809D0C11DBB
:1051A000F931CA7A022A07D0032A09D00BE0104845
:1051B00038BD0F48801C38BD097B042911D002E09E
:1051C000097B03290DD021686A46D1700B0A9370C0
:1051D0000B0C090E53701170A0300099C1600020B3
:1051E00038BD21462A46A030FCF716FFF7E700003D
:1051F00012300000FFB5054637480E4601683748B3
:1052000081B000290FD0471C022E08D0012E09D1F1
:1052100033490968002906D00398002802D0681E87
:10522000032802D3384605B0F0BD2F482D4C067038
:10523000FCF78EFF2D48FCF7A9FF30462C4E0128C5
:1052400004D0022834D03C462046ECE703991022D3
:105250000C462848FCF7E0FE012D1DD0022D20D081
:10526000254D0A9868800498A880228A214600204B
:105270006369FEF7C3FD0120687004200090688810
:105280000121C907411803AB1C4A2846FCF754FF0B
:105290000400D9D1B1201CE0228A21460020636994
:1052A00003E0228A214601206369FEF7A7FDEFE7AC
:1052B000E80704D001210020FEF718FE0446A807E5
:1052C00004D501210846FEF711FE0446002CBBD18F
:1052D000B2203060B8E70000101A00201130000042
:1052E0000C1A0020FFFF0000181A00200CA9002053
:1052F000141A00204CA90020041A0020CDD3031159
:1053000010B50248FCF736FF10BD0000041A00205B
:1053100000280AD008498A68002A08D0097801299B
:1053200007D0012101700020704704487047002118
:10533000F8E70221F6E70000E4180020FFFF000074
:105340000149886000207047E4180020F0B5074646
:105350000020264C022685B00546012915D00229D9
:1053600020D1A078FF2802D0A01CFCF703FF032F58
:105370002BD0E57068468780808809F01DF80028EA
:1053800010D1E178012925D02CE06078184FFF2852
:1053900007D169468D80284602A9FDF77DFD0028CA
:1053A00002D0384605B0F0BD082202A90220FEF75F
:1053B000B3FE0E4801AB0F4A0F49401C0096FCF7A4
:1053C000BBFE2179012211430EE00120E070684606
:1053D0008580D1E7054801AB084A0749801C009643
:1053E000FCF7AAFE217931432171DBE7E4180020A4
:1053F000FFFF000055E303112C01008055E4031169
:1054000070B50D4C00252079C00707D0012102207E
:10541000FEF7D6FC207940084000207120798007F3
:1054200007D501210320FEF7CBFC2079FD210840A0
:105430002071284670BD0000E4180020FFB5054625
:1054400087B01E48009000246846047105721E480B
:105450001B4E1C4F069004210497039668468182D8
:1054600069462046089AFEF7A9FB14480421401C0F
:105470000090684604710572134804971030069036
:1054800003966846818269462046099AFEF796FB94
:1054900005460E480A99C160089909880181099951
:1054A00009884181448084800470447080210848C8
:1054B000FCF7DCFD28460BB0F0BD00000312000035
:1054C0009DF70311EDF9031140240411681B00201E
:1054D0000CAA002010B50024A0B205F0ADF9641CA0
:1054E000052CF9D3002010BD10B5134602280AD0B0
:1054F000FF20800041430548091808221846FCF7A0
:105500008BFD002010BD08220149F7E744720020FE
:105510003086002007490A8802808A788270CA781B
:10552000C2700A790271CA88C2800989018100208B
:1055300070470000488600200C490A88002A0FD0D6
:105540004B88002B0CD002804A884280CA79427175
:105550000A89C2804A8902818979017100207047D5
:105560000022028042804271C280F4E75C86002003
:1055700070B50D460B4C05F09FF9052810D0FF21A2
:1055800089004843084940180721C9014018C06EE6
:105590007D21C900401A6421FCF7BCFD002428606D
:1055A000204670BDFFFF000044720020F0B50446A5
:1055B0000E4800220E4D1F268C467601FF218900E1
:1055C00051434B199F19397C01290AD15B88FF7D12
:1055D0009C4206D3D919A14203D9614600200A7022
:1055E000F0BD521C052AE9D3F0BD000021240000C3
:1055F00044720020F0B504460A781248052A01D109
:10560000002202E0521C052A15D2FF239B000E4DFA
:1056100053435D191F235B01EB181B7C012BF1D158
:1056200000230F26B6015F00EF19BF19BF8BA742F9
:1056300002D100200A70F0BD5B1C082BF3D30028B8
:10564000E0D1F0BD212400004472002070B5054671
:10565000FF20800041430B48094C0E1872882946F0
:1056600009A0FCF7F7FC12A0FCF7F4FC114800209D
:10567000C0467088A84200D10024204670BD0000BA
:1056800021240000447200205B46524E445D20738A
:10569000616464723A203078253032582C2075616C
:1056A0006464723A203078253032580A00000000D5
:1056B0000D0A00006C1700207CB5154CE08900280D
:1056C00024D0207D0025FF2808D020461430FCF788
:1056D00051FD0320FEF74EFD0E48057001A8FDF7B1
:1056E00077FB0D4869468089C8800095E08901AB49
:1056F000052200210AF06EFF18210548FCF7B6FCD0
:10570000FF202075E5810020FDF772FE00207CBDA2
:1057100030860020BC1800206C860020F7B50546B6
:10572000002086B069460882144E1F27488204462E
:105730007F01FF20800060438019C119097C012985
:1057400015D10088A84212D16946079808710898B7
:105750000872020ACA71020C8A71000E4871052093
:10576000009001AB03AA00212046FCF715FD641C44
:10577000E4B2052CDDD3002009B0F0BD4472002056
:10578000012902D0002902D003E0034900E00349C7
:105790000860002070470000A0180020A418002016
:1057A000FFB5C9B00026529A539835460A2A02D945
:1057B00052484DB0F0BD69460A770124022113001A
:1057C000FCF7CCFC0B87070C224657576767077E10
:1057D000870000786946487702247AE002786946B3
:1057E0004A77027908A94A7081880A0A08A90A70CA
:1057F00041680A0C6946CA7741680A0E69468A7789
:10580000007A08A9887032E003786A4653774378B3
:105810009377037908AA53708288130A08AA137031
:105820004268130C6A46D377037A08AAD3700289B8
:10583000130A08AA9370837A1371037B937180898A
:10584000000A50712E484A902E480B24017040E007
:10585000027869464A7742788A778278CA77C2782E
:1058600008A90A7002798A708088000A48700724A3
:105870002FE0027869468A7701880A0A69464A77E2
:10588000827808A90A7040886946000AC87705240A
:105890001FE001786B465977022407AA00210BE02C
:1058A00043684F00DB191B8817197B701B0A1355BF
:1058B000A41C491CE4B2C9B203898B42F0D808E0A9
:1058C000027869464A778278CA774088000A8877E2
:1058D000042447A8FFF7D0F9479A002107A80691AA
:1058E00004904C980594039249AF0196029500905C
:1058F00007CF0123FCF756FC5BE7000012230000F2
:10590000FDFF000098180020F8B504460026008826
:105910002B4D374600280DD02A486881208929461A
:1059200028810A31FDF70AF806000BD004260BF097
:1059300051FB13E014212248FCF798FB2F80AF7035
:10594000EF700BE020882880A078A870E078E870DD
:1059500020792871A0790007000FE880288820802E
:10596000A878A070E888E08028892081E878E07035
:1059700028792071002E17D1E978002914D0A87851
:10598000002811D001242746491E8F40FF2803D04C
:10599000401E84402C6101E00A4828610BF01AFB8C
:1059A00038460BF0EFFA00E02F6107A0FCF752FB3E
:1059B0000FA0FCF74FFB0F480020C0463046F8BD53
:1059C00048860020FFFF00003C3C204D535F74726E
:1059D0006E5F7365745F6865617274626561745F40
:1059E0007075626C69636174696F6E0A0000000013
:1059F0000D0A00006C170020F0B5044687B00020A7
:105A00000590208800252E4E002813D0608800289D
:105A100010D0617900290DD0FFF794F9074620884E
:105A2000FFF790F9009006A8FDF7D2F90098012839
:105A300016D103E035807580F57128E0012F0AD07A
:105A4000032F0DD1684605706188418069460020AA
:105A5000FCF728FE08E069466088098B884203D07D
:105A6000F5710120059012E02088308060887080F8
:105A70006079F0717F2131817581B571B580012523
:105A8000401E85400BF0B2FA28460BF08FFA3088A2
:105A9000208070886080B0792071F07960713089E1
:105AA000E0807089208107A0FCF7D4FA0FA0FCF7F2
:105AB000D1FA0F480020C046059807B0F0BD00009D
:105AC0005C8600203C3C204D535F74726E5F7365B2
:105AD000745F6865617274626561745F7375627327
:105AE0006372697074696F6E0A0000000D0A00002D
:105AF0006C17002010B5164C88B0E188884302D09E
:105B0000144808B010BD02A8FDF762F97F2168466D
:105B1000017405A8FDF708F806A8FDF71DF868460A
:105B2000007E022805D06846007D4107490F68467F
:105B300001756846017D41820A2004A90090019107
:105B40006846037C628921880089FFF729FED8E72F
:105B500048860020FFFF00001CB50A46014601A848
:105B6000FCF75AFA0198FF214174017A002907D005
:105B70000422009201AB074A1230FCF7DDFA1CBD8B
:105B80004179017100F020F803480199008800F084
:105B900079FE1CBD9D5B03113A17002008B50A462B
:105BA00001466846FCF738FA0098FF2141744179B4
:105BB000017100F009F803480099008800F062FEC6
:105BC00008BD00003A17002010B5002900D00121BF
:105BD000C06805F0CBFE10BD70B58AB0109C0D46B4
:105BE00020460F9E1199FCF7E3FA6A48002E458083
:105BF0007ED06948301825D001285BD02E2858D196
:105C0000032211460220FCF7D9FAFF2283326349AE
:105C100063A0FCF71FFA66A0FCF71CFA6548002099
:105C2000C04665A0FCF716FA61A0FCF713FA6148BC
:105C30000020C0460020654903460870644A0521DB
:105C40000090A1E06078257800020543E078A17813
:105C5000000208436946488202A92846FDF742FE31
:105C6000040002D0FF22903236E0FF2293324B49EB
:105C700058A0FCF7EFF94EA0FCF7ECF94D480020D6
:105C8000C0466846448A037A2A46214654A0FCF757
:105C9000E1F947A0FCF7DEF946480020C046684617
:105CA0002946007A0AF0AEFA68462146007A0BF0DF
:105CB0007BFD6DE06078257800020543E078A178EF
:105CC000000208436946488202A92846FDF70AFEF9
:105CD00004001BD0FF22A032304931A0FCF7BAF9F2
:105CE00033A0FCF7B7F933480020C046224600E055
:105CF00030E029464A48FCF7ADF92DA0FCF7AAF997
:105D00002C480020C04620460AB070BDFF22A332B6
:105D1000224930A0FCF79EF925A0FCF79BF9254805
:105D20000020C0466846448A037A2A4621463DA0A0
:105D3000FCF790F91EA0FCF78DF91E480020C04624
:105D400068462946007A0AF05DFAE8B221460BF06F
:105D500071FD1DE0FF22AA3210491EA0FCF77AF95E
:105D600013A0FCF777F913480020C0463DA0FCF7CC
:105D700071F90FA0FCF76EF90E480020C046022012
:105D80003E4A03AB032100900248401CFCF7D4F9C3
:105D90000020B9E738170020E57FFFFF411D0411FF
:105DA0005B5B455D5D2573202325640900000000D1
:105DB0000D0A00006C1700205B53542054696D6578
:105DC0004F75742043425D0A0000000090160020C9
:105DD0005D0404115B445D257320232564090000E4
:105DE0005B434F4E4649472053554253204144445C
:105DF0005D3A2030782530345820696E746F203039
:105E000078253034582C20656C656D656E745F683C
:105E1000616E646C65203D203078253034580A006E
:105E2000082B04115B434F4E4649472053554253BC
:105E30002044454C5D3A2030782530345820667235
:105E40006F6D203078253034582C20656C656D6579
:105E50006E745F68616E646C65203D20307825301B
:105E600034580A005B434F4E464947204150504B3F
:105E70004559204144445D0A00000000495F031178
:105E800070B594B000240F941094119421A0129432
:105E9000FCF7E0F828A0FCF7DDF828480020C04611
:105EA000002513AA0EA92046FCF762FD04002DD19F
:105EB0000E9AD67B937B517B107B0A900BA84AC02D
:105EC000D67A937A517A107A069007A84AC0D67982
:105ED000937951791079029003A84AC0D1789078CB
:105EE000019100905378127829461548FCF7B2F8D2
:105EF00011A0FCF7AFF811480020C04610220FA9EE
:105F00000E98FCF783F8002800D10E4C14B0204600
:105F100070BD00004665746368696E6720417070EB
:105F2000204B657920666F722048616E646C652035
:105F30003078303030300A000D0A00006C17002035
:105F4000A42A0411FFFF0000F0B595B04F2261496B
:105F500061A0FCF77FF863A0FCF77CF862480020A2
:105F6000C046002011906149FF204870FFF788FF6C
:105F7000002816D05A2257495DA0FCF76BF859A0AB
:105F8000FCF768F858480020C04621465CA0FCF7A2
:105F900061F854A0FCF75EF853480020C04615B0E5
:105FA000F0BD05A804F0F2FB06460120FDF79CFDBC
:105FB000002505AC1DE06F00E05B1199FCF724FAA9
:105FC0000F906522434954A0FCF744F845A0FCF724
:105FD00041F845480020C046E25B52A0119B0F9952
:105FE000FCF738F83FA0FCF735F83F480020C046E2
:105FF0006D1CB542DFDB0020FDF776FDFDF76CFD83
:106000000120FDF771FD0020694608704E4800250B
:10601000008848801EE06F00E05B6946FCF742FBA9
:106020000F9075222B493CA0FCF714F82DA0FCF72B
:1060300011F82D480020C04668464388E25B43A023
:106040000F99FCF707F827A0FCF704F82648002072
:10605000C0466D1CB542DEDB00206946087044482E
:10606000488000251EE06F00E05B6946FCF71AFBE4
:106070000F907F22174928A0FBF7ECFF19A0FBF730
:10608000E9FF19480020C04668464388E25B2FA01C
:106090000F99FBF7DFFF13A0FBF7DCFF124800208E
:1060A000C0466D1CB542DEDB00F004FE0820FDF7A3
:1060B0006BF900210120FDF777F92E4903200870C4
:1060C00028210120FDF7E2FA0020FDF70DFDFDF784
:1060D00003FD64E7AE1C04115B545D25732023258A
:1060E00064090A000D0A00006C1700203817002010
:1060F0005B5B455D5D25732023256409000000007E
:10610000494E56414C494420417070204B657920DE
:10611000253034780A0000005B445D257320232578
:106120006409000042494E44494E472041707020A6
:106130004B65792025303478202825303478202587
:10614000303478290A0000009E1B0020494E495433
:1061500020535542534352495054494F4E20253005
:1061600034782028253034782025303478290A00E6
:10617000FFCF00009016002038B50C4600281CD038
:10618000012808D0022833D0032841D0014625A099
:10619000FBF760FF3FE033A0FBF75CFF41A0FBF79C
:1061A00059FF41480020C0460020034600903F4A66
:1061B00003213F48FBF7C0FF38BD3EA0FBF74AFF75
:1061C00038A0FBF747FF38480020C046FBF7FCFF2C
:1061D000002806D0FBF7F8FF0128EDD1FFF710F9F2
:1061E00038BDFFF78DF801210020FDF7E9FD38BD2E
:1061F0003FA0FBF72FFF2BA0FBF72CFF2A48002026
:10620000C046002CF3D10021022001F0C1FA38BDB4
:1062100042A0FBF71FFF23A0FBF71CFF2248002032
:10622000C04638BD0A203E3E2047415454204265B6
:106230006172657220424C45204C696E6B204C6146
:1062400079657220556E6B6E6F776E204576656E40
:106250007420307825303258205265636569766540
:1062600064210A000A203E3E2047415454204265E2
:106270006172657220424C45204C696E6B204C6106
:1062800079657220446973636F6E6E656374696FBC
:106290006E204576656E7420526563656976656427
:1062A000210A00000D0A00006C1700205D04041193
:1062B000391700200A203E3E2047415454204265B1
:1062C0006172657220424C45204C696E6B204C61B6
:1062D00079657220436F6E6E656374696F6E2045D9
:1062E00076656E74205265636569766564210A007F
:1062F0000A203E3E20474154542042656172657237
:1063000020416374697665204576656E7420526518
:10631000636569766564210A000000000A203E3E3C
:1063200020474154542042656172657220496E6174
:106330006374697665204576656E74205265636581
:1063400069766564210A0000FFB58BB0002604461B
:106350000596008806906788A088694688831D4650
:1063600001A9069804F0FAF90C9801894068FBF736
:106370001FFF50480780069804F01EFA070015D04A
:106380006846808B002801D0000408D507A8FCF7D8
:106390001FFD6846818B00790918684681830D9836
:1063A0000078012817D000281FD02BE0F4224249A2
:1063B00042A0FBF74FFE45A0FBF74CFE44480020EF
:1063C000C0464448FBF746FE40A0FBF743FE40486A
:1063D0000020C04616E038460C9900F081F90646C8
:1063E00028786946087368680BE000200090024630
:1063F000297805AB384600F033F900206946087368
:1064000005A804900D984078012850D17979684604
:10641000017500250581A088264960800988A18032
:10642000002801D000041FD502A8FCF7D1FCFF22F0
:106430002132214928A0FBF70DFE24A0FBF70AFE1C
:1064400023480020C04668460289618825A0FBF7E2
:1064500001FE1EA0FBF7FEFD1D480020C046684659
:1064600001890079081860806288A1882948FBF7B3
:10647000F1FD16A0FBF7EEFD15480020C0460025F3
:10648000002003460246009003A92046FDF7C0FF06
:106490006D1CEDB20646022DF2D3002EEFD11E4840
:1064A000FF2143787A79608801310AF035FE304661
:1064B0000FB0F0BD3A1700203C1B04115B5B455D3B
:1064C0005D25732023256409000000000D0A0000EB
:1064D0006C170020A42704115B445D25732023253D
:1064E000640900005B47454E455249435F4F4E4F9C
:1064F00046465D207265706C616365204453542E7E
:10650000202825303478202D3E202530347829204D
:106510000D0A000098260411841B0411F7B50646E5
:1065200082B01420FBF7A8FD334F040025D01421BE
:10653000FBF79CFD314A69463046FDF743FF0500F5
:106540002BD0FF225F322E492EA0FBF783FD31A016
:10655000FBF780FD30480020C04629462F48FBF756
:1065600079FD2CA0FBF776FD2B480020C046204685
:10657000FBF788FD284605B0F0BDFF2252322049C6
:1065800020A0FBF767FD23A0FBF764FD2248002055
:10659000C04623A0FBF75EFD23E068460188224643
:1065A000304602F0F7FA002809D0267068460088C5
:1065B000608003982074049804600020DBE7FF22C9
:1065C0006A320F490FA0FBF745FD12A0FBF742FD11
:1065D00011480020C0466846028831461F48FBF734
:1065E00039FD0CA0FBF736FD0B480020C0462046C5
:1065F000FBF748FD3846BEE7FFFF00004963031183
:106600005D1B04115B5B455D5D25732023256409DB
:10661000000000000D0A00006C170020DC260411A9
:1066200047656E65726963204F6E6F6666205365BD
:1066300072766572204D6F64656C2043726561747B
:1066400065206661696C656421205B454D5F616C06
:106650006C6F635F6D656D5D210A0000302704116A
:1066600010B50024002916D0BE220D490DA0FBF75D
:10667000F1FC10A0FBF7EEFC0F480020C046002103
:106680000EA0FBF7E7FC0BA0FBF7E4FC0A48002098
:10669000C046204610BD0179197040795870F8E75E
:1066A0001B1B04115B5B455D5D257320232564097D
:1066B000000000000D0A00006C1700205B47454EEB
:1066C00045524943204F4E4F4646204745545D2092
:1066D0006572726F72206D73672025640D0A000069
:1066E00013B50C4682B07522414942A0FBF7B2FCBB
:1066F00043A0FBF7AFFC43480020C0466068017828
:1067000041A0FBF7A7FC3EA0FBF7A4FC3D480020FE
:10671000C04660680178029841712289042A04D039
:10672000022A5BD0404804B010BD616889780172CC
:106730006168C97841726068807802F057FA0299FE
:1067400008726068C078820080180122D207801821
:1067500048728522264927A0FBF77CFC28A0FBF77E
:1067600079FC28480020C0460298017A2FA0FBF748
:1067700071FC23A0FBF76EFC22480020C046862255
:106780001B491CA0FBF766FC1DA0FBF763FC1D4822
:106790000020C0460298417A2FA0FBF75BFC18A0AE
:1067A000FBF758FC17480020C04602980422417AA3
:1067B000002904D0009202AB304A113006E0017A81
:1067C000002906D0009202AB2C4A1230FBF7B4FC31
:1067D0000CE041790171FFF7F7F907E00171FFF76C
:1067E000F3F927480299008800F04CF800209AE756
:1067F000FA1A04115B445D25732023256409000007
:106800000D0A00006C1700205B4F4E4F46465F5349
:1068100045545D207461726765743A203078253084
:1068200032580D0A00000000FFFF00005B4F4E4F82
:1068300046465F5345545D207472616E7369746996
:106840006F6E5F74696D655F6D733A2030782530C7
:1068500032580D0A000000005B4F4E4F46465F5312
:1068600045545D2064656C61795F74696D655F6D29
:10687000733A203078253032580D0A00595B0311E5
:106880003A17002070B588B0054608796C46207626
:1068900048796076488805A903F060FF07A8FCF7EF
:1068A00097FAA08B217D26224018A083154916A0B7
:1068B000FBF7D0FB17A0FBF7CDFB17480020C04625
:1068C000A28B29461548FBF7C5FB12A0FBF7C2FBBC
:1068D00011480020C0460824114E032106A8FBF7EA
:1068E00067FC002206A903200094029101960492FD
:1068F00003906C4613462946A08BFBF7EDFB08B0CE
:1069000070BD0000DC1A04115B445D257320232553
:10691000640900000D0A00006C17002054260411C1
:1069200004820000F7B582B00E461820FBF7A4FBE6
:10693000494F040026D01821FBF798FB474B01AACA
:1069400069460298FEF77AFD050031D0FF225932E0
:10695000434944A0FBF77EFB46A0FBF77BFB464880
:106960000020C04629464548FBF774FB41A0FBF7D1
:1069700071FB41480020C0462046FBF783FB2846B8
:1069800005B0F0BDFF224D32354936A0FBF762FB62
:1069900038A0FBF75FFB38480020C04638A0FBF763
:1069A00059FB34A0FBF756FB33480020C04646E0B5
:1069B000684601882246029802F0ECF8002812D0BE
:1069C000684681882246029802F0E4F800281BD02D
:1069D000029820706946088860808988A18009F043
:1069E00017FD002434E0FF2262321D491DA0FBF791
:1069F00031FB20A0FBF72EFB1F480020C046684655
:106A000002882E4802990FE0FF226A32144915A02D
:106A1000FBF720FB17A0FBF71DFB17480020C04623
:106A20006846828826480299FBF714FB11A0FBF701
:106A300011FB11480020C0462046FBF723FB3846D7
:106A40009EE704986100415A684606F0EFFD641C19
:106A5000B442F6DB002093E7FFFF0000C56A031194
:106A60001F1E04115B5B455D5D25732023256409B2
:106A7000000000000D0A00006C17002028300411EF
:106A800047656E65726963207363656E6520536543
:106A900072766572204D6F64656C20437265617417
:106AA00065206661696C656421205B454D5F616CA2
:106AB0006C6F635F6D656D5D210A00007C300411B1
:106AC000F0300411FFB581B007461C4615463DA0C5
:106AD0000299FBF7BFFA44A0FBF7BCFA4348002039
:106AE000C04621462846FBF763FB0026388803F0A2
:106AF00063FE074602980300FBF730FB0662040FB3
:106B0000282E4562042C49D1286800902020FBF7EC
:106B1000B3FA002843D0064652E0042C3ED129683F
:106B200033A00091FBF796FA2FA0FBF793FA2F48BA
:106B30000020C0460A98002842D00168009A91427D
:106B40003ED1FBF79FFA31A0009913E0042C25D128
:106B5000296833A0009127E03AA0FBF77BFA22A036
:106B6000FBF778FA21480020C046042C16D129688A
:106B70003DA00091FBF76EFA1BA0FBF76BFA1B48D8
:106B80000020C0461CE042A0FBF764FA16A0FBF709
:106B900061FA16480020C046042C02D0002005B03F
:106BA000F0BD296830A00091FBF754FA0EA0FBF766
:106BB00051FA0E480020C0466946384601F072FE80
:106BC0003046ECE75B47454E455249435F534345EA
:106BD0004E455D206576656E745F74797065205BE7
:106BE000253034585D2E0A000D0A00006C17002075
:106BF00064656C657465207363656E652C20696ED1
:106C0000646578203D202564200A00007363656E6A
:106C1000652025642064656C657465640A00000065
:106C2000737461727420726563616C6C696E672045
:106C30007363656E652C20696E646578203D202540
:106C400064200A004D535F5343454E455F4556450A
:106C50004E545F524543414C4C5F434F4D504C4561
:106C60005445200A00000000636F6D706C65746508
:106C700020726563616C6C696E67207363656E6515
:106C80002C20696E646578203D202564200A000070
:106C90004D535F5343454E455F4556454E545F52F5
:106CA0004543414C4C5F494D4D4544494154452075
:106CB0000A00000030B58FB000241EA0FBF7CAF90F
:106CC00025A0FBF7C7F925480020C0460EA920469D
:106CD000FBF70AFF01000BD021A0FBF7BBF91EA0B8
:106CE000FBF7B8F91D480020C04600200FB030BDAA
:106CF0000E98C57B837B427B017B0A910BA92CC13B
:106D0000C57A837A427A017A069107A92CC1C5799E
:106D1000837942790179029103A92CC1C2788178E3
:106D2000009101924378027821461348FBF792F9CB
:106D3000D5E700004665746368696E672044657630
:106D4000204B657920666F7220696E6478203078F8
:106D5000303030300A0000000D0A00006C170020AF
:106D60004641494C45442E20526561736F6E3A206E
:106D70003078253034580A003C2A04117047704797
:106D80007047002070470000FEB506462820FBF73C
:106D900073F9414F040024D02821FBF761F93F4BE0
:106DA00001AA69463046FDF72BFD05002ED0F222E0
:106DB0003B493CA0FBF74EF93EA0FBF74BF93E48A0
:106DC0000020C04629463D48FBF744F939A0FBF7AF
:106DD00041F939480020C0462046FBF753F92846C0
:106DE000FEBDE8222E492FA0FBF734F931A0FBF7B6
:106DF00031F931480020C04631A0FBF72BF92DA016
:106E0000FBF728F92C480020C04643E0684601887B
:106E10002246304601F0BEFE002810D06846818828
:106E20002246304601F0B6FE002818D0267068468B
:106E30000088608068468088A0800020FEBDFC221B
:106E4000174918A0FBF706F91AA0FBF703F91A482F
:106E50000020C04668460288314627480FE0FF22DE
:106E600005320F490FA0FBF7F5F812A0FBF7F2F877
:106E700011480020C0466846828831461F48FBF70B
:106E8000E9F80CA0FBF7E6F80B480020C0462046C6
:106E9000FBF7F8F83846FEBDFFFF0000E570031170
:106EA000441E04115B5B455D5D2573202325640949
:106EB000000000000D0A00006C1700206832041169
:106EC0004C696768742068736C20536572766572CC
:106ED000204D6F64656C2043726561746520666146
:106EE000696C656421205B454D5F616C6C6F635F0D
:106EF0006D656D5D210A0000B43204112433041164
:106F000010B504462F2904D118461222A11DFBF703
:106F100083F8002010BD0000F8B5002604462F2994
:106F200061D11D4619893148FBF794F830A0FBF771
:106F300091F830480020C0462988E180AA88628103
:106F40002B89E381287BA0740020009000F06CF96D
:106F50001222A11D2846FBF75FF8618926A0FBF7E6
:106F600079F823A0FBF776F822480020C046E18993
:106F700029A0FBF76FF81EA0FBF76CF81D48002056
:106F8000C046E1882DA0FBF765F819A0FBF762F871
:106F900018480020C046A18931A0FBF75BF814A077
:106FA000FBF758F813480020C046218A33A0FBF7AE
:106FB00051F80FA0FBF74EF80E480020C04621897B
:106FC00037A0FBF747F80AA0FBF744F80948002070
:106FD000C046E17C3BA0FBF73DF805A0FBF73AF883
:106FE00004480020C0463046F8BD00006831041156
:106FF0000D0A00006C1700205B73746174655D20DE
:1070000063757272656E74204875653A2030782514
:107010003034580A000000005B73746174655D20B1
:1070200063757272656E74205361747572617469F0
:107030006F6E3A203078253034580A005B737461E3
:1070400074655D2063757272656E74204C69676843
:10705000746E6573733A203078253034580A000016
:107060005B73746174655D20746172676574204838
:1070700075653A203078253034580A005B737461A6
:1070800074655D20746172676574205361747572F4
:107090006174696F6E3A203078253034580A0000E8
:1070A0005B73746174655D20746172676574204CF4
:1070B000696768746E6573733A2030782530345888
:1070C0000A0000005B73746174655D2072656D6118
:1070D000696E696E675F74696D653A203078253036
:1070E00032580A00FFB50A89486891B01C4600264C
:1070F0001146FBF75DF811983249408808801198D5
:10710000008803F059FB03901398002700780028AB
:1071100002D0012823D037E02BA0FAF79BFF31A043
:10712000FAF798FF30480020C046207801462F38F3
:107130000300FBF713F8060404060404080906AD6F
:1071400002E00EAD00E00BAD2B4600220097039845
:10715000FFF7D6FE207869460871029514E023A057
:10716000FAF778FF1FA0FAF775FF1F480020C04606
:1071700000972178002263680398FFF7CDFE2078FE
:10718000694608716068029013984078012815D10B
:107190001DA0FAF75FFF13A0FAF75CFF124800206A
:1071A000C046002400231A4601A900971198FDF754
:1071B00067FB641CE4B20646062CF3D3304615B0D8
:1071C000F0BD00003A1700205B4C494748545F4827
:1071D000534C5D2047455420526571756573742E7C
:1071E0000A0000000D0A00006C1700205B4C4947A4
:1071F00048545F48534C5D20534554205265717587
:107200006573742E0A0000005B4C494748545F4880
:10721000534C5D2053656E64696E672052657370D0
:107220006F6E73652E0A0000104610B50A461946A7
:10723000FAF7D0FF10BD0000F8B506462020FAF797
:107240001BFF3E4F04001AD02021FAF709FF3C4AE9
:1072500069463046FDF702FC050020D0FF225A3275
:10726000384939A0FAF7F6FE3BA0FAF7F3FE3B489F
:107270000020C04629463A48FAF7ECFE33E0FF22E8
:107280004D32304930A0FAF7E5FE33A0FAF7E2FEBE
:1072900032480020C04633A0FAF7DCFE40E06846E2
:1072A00001882246304601F075FC002826D0267061
:1072B0006846008860803B4901F008FB3D46A842D3
:1072C00039D1FF226F321F491FA0FAF7C3FE22A057
:1072D000FAF7C0FE21480020C046684602883146C1
:1072E0003148FAF7B7FE1CA0FAF7B4FE1B4800209D
:1072F000C0462046FAF7C6FE2846F8BDFF22653292
:10730000104911A0FAF7A6FE13A0FAF7A3FE13483E
:107310000020C0466846028831462448FAF79AFEA3
:107320000DA0FAF797FE0D480020C0462046FAF758
:10733000A9FE3846F8BD0020F8BD0000FFFF0000A0
:1073400015760311C61D04115B5B455D5D25732039
:1073500023256409000000000D0A00006C170020BE
:10736000F02E04116C69676874206C696768746E2C
:1073700065737320536572766572204D6F64656C1A
:1073800020437265617465206661696C65642120C3
:107390005B454D5F616C6C6F635F6D656D5D210A70
:1073A00000000000B5750311482F0411B42F04111B
:1073B000F8B505460F461C4600261548FAF74AFE62
:1073C00014A0FAF747FE14480020C046253F3B00B2
:1073D000FAF7C4FE050E151204071C00288BA082C4
:1073E00014E0688BE082A88B20830020A0760DE05B
:1073F0000822291D204607E0E88A608206E0294627
:1074000020460A220C310830FAF706FE3046F8BD55
:10741000EC2D04110D0A00006C170020F8B505468C
:107420000F461C4600264A48FAF714FE49A0FAF710
:1074300011FE49480020C046253F3B00FAF78EFE6A
:107440000513494604078500A08A28837DE0E08A69
:10745000218B884201D9012003E06883208BA88317
:107460000020A07671E0208800270104081AFAF7AE
:10747000B7FEFAF7BBFEFAF7BFFE82B239462846DE
:1074800000F066F91C22291D2046FAF7C5FD218867
:1074900032A0FAF7DFFD2FA0FAF7DCFD2E4800201E
:1074A000C046618834A0FAF7D5FD2AA0FAF7D2FDCC
:1074B00029480020C046617935A0FAF7CBFD25A008
:1074C000FAF7C8FD24480020C0463EE0608AE88202
:1074D0003BE022890021284600F03AF91C22291DB0
:1074E0002046FAF799FD21891CA0FAF7B3FD19A0EF
:1074F000FAF7B0FD18480020C04661891EA0FAF7CF
:10750000A9FD14A0FAF7A6FD13480020C046617B30
:107510001FA0FAF79FFD0FA0FAF79CFD0E48002070
:10752000C0462589FF2102312846FAF7F3FD0246BD
:1075300029461F48FAF78EFD06A0FAF78BFD06488C
:107540000020C0462089FAF75DFE3046F8BD0000F5
:10755000E82C04110D0A00006C1700205B737461A5
:1075600074655D2063757272656E743A203078259B
:107570003032580A000000005B73746174655D204E
:107580007461726765743A203078253032580A0089
:107590005B73746174655D2072656D61696E696E9F
:1075A000675F74696D653A203078253032580A007B
:1075B000F42B041110B5EB2209490AA0FAF74AFD91
:1075C0000BA0FAF747FD0B480020C0460AA0FAF7C7
:1075D00041FD07A0FAF73EFD06480020C04610BD59
:1075E000A11D04115B445D2573202325640900005F
:1075F0000D0A00006C1700206C696768746E657373
:10760000735F7363656E655F726563616C6C6564FF
:107610005F636200FFB505460A8948688FB01C4663
:107620001146FAF7C5FD2D4968880880288803F0BF
:10763000C3F80190A988288808F0D4FE1198002783
:1076400000783E46002802D0012815D029E024A069
:10765000FAF700FD2AA0FAF7FDFC2A480020C046F0
:107660000096217806AB00220198FFF7A1FE207852
:107670006946087306A813E023A0FAF7EBFC20A0E4
:10768000FAF7E8FC1F480020C04600962178002247
:1076900063680198FFF7C2FE207869460873606846
:1076A000049011984078012815D11FA0FAF7D2FC58
:1076B00013A0FAF7CFFC13480020C0460024002393
:1076C0001A4603A928460096FDF7EEF9641CE4B2B9
:1076D0000746062CF3D3384613B0F0BD3A17002006
:1076E0005B4C494748545F4C494748544E455353B7
:1076F0005D2047455420526571756573742E0A00EC
:107700000D0A00006C1700205B4C494748545F4C41
:10771000494748544E4553535D20534554205265C4
:1077200071756573742E0A005B4C494748545F4C71
:10773000494748544E4553535D2053656E64696E06
:107740006720526573706F6E73652E0A000000002B
:1077500010B50446418B808B002903D08A4201D2A8
:107760000A4607E0002803D0824201D9024601E020
:10777000002A00D0E282A281044804495243101832
:10778000491CFAF745FDA08010BD0000FEFF000077
:1077900010B504460DA0FAF75DFC16A0FAF75AFCE6
:1077A00015480020C046154B1E22194612312046AE
:1077B000FDF740FC014612A0FAF74CFC0DA0FAF7C9
:1077C00049FC0D480020C04610BD000042696E64AF
:1077D000696E672077697468207468652073656CCA
:1077E0006563746564206465766963652E2E2E0A70
:1077F000000000000D0A00006C1700209216002007
:1078000052657476616C202D203078253034580A0A
:1078100000000000FFB581B00F461E490A9E0024FB
:107820002046382250430A5CBA4224D14018406BAB
:10783000002820D0382060434518691C16A0FAF7AC
:1078400009FC1BA0FAF706FC1A480020C0461AA043
:107850000399FAF7FFFB16A0FAF7FCFB1548002086
:10786000C04600966D6B3946049B039A0198A84761
:10787000092C04D20AE0641CE4B2092CD0D300968F
:107880003946049B039A019800F0B2F9002005B034
:10789000F0BD0000C018041152656376642065765F
:1078A000656E745F74797065202025730A0000008E
:1078B0000D0A00006C170020537461747573202D3D
:1078C000203078253034580A00000000704700004E
:1078D00030B589B01C4619882FA0FAF7BBFB36A03B
:1078E000FAF7B8FB35480020C046A17834A0FAF773
:1078F000B1FB31A0FAF7AEFB30480020C046384853
:1079000040780128208804D003282ED0022840D0B7
:1079100003E0042829D003283BD0032131A008919B
:10792000FAF798FB24A0FAF795FB24480020C046FC
:1079300008AD042432A0FAF78DFB1FA0FAF78AFBEA
:107940001E480020C046264822462946801CFDF7D6
:107950001BFC014630A0FAF77DFB17A0FAF77AFB73
:1079600016480020C04609B030BD30A16846FAF77D
:1079700055FC69462FA0FAF76DFB0FA0FAF76AFBDA
:107980000E480020C0466D462846FAF74DFC84B2EA
:10799000D0E72F49C2E7000041757468656E7469CD
:1079A0006361696F6E20416374696F6E202D2030B2
:1079B00078253032580A00000D0A00006C170020AC
:1079C00041757468656E74696361696F6E2053698F
:1079D0007A65202D203078253032580A00000000CA
:1079E000901600200A0A3E3E3E204175746856619A
:1079F0006C202D202564203C3C3C0A0A000000003D
:107A000053657474696E6720746865204175746885
:107A100076616C2E2E2E0A0052657476616C202DD4
:107A2000203078253034580A000000006630306C71
:107A3000000000000A0A3E3E3E204175746856610F
:107A40006C202D202573203C3C3C0A0A00000000DD
:107A5000BF88000010B51C4619880AA0FAF7FAFA88
:107A600010A0FAF7F7FA10480020C046A1780FA03E
:107A7000FAF7F0FA0BA0FAF7EDFA0B480020C0462F
:107A800010BD000041757468656E74696361696F4B
:107A90006E20416374696F6E202D2030782530325E
:107AA000580A00000D0A00006C1700204175746828
:107AB000656E74696361696F6E2053697A65202D04
:107AC000203078253032580A0000000010B51C46DE
:107AD0001CA0FAF7BFFA1EA0FAF7BCFA1D48002056
